:100000006F10103C130000001300000013000000EC
:100010001300000013000000130000001300000094
:100020001300000013000000130000001300000084
:08003000130000007300100032
:100038000000000000000000D2190000E2190000D2
:1000480000000000061B0000000000000000000087
:10005800081B00000A1B0000000000000000000050
:100068000C1B0000000000000E1B00000000000038
:10007800101B0000121B0000141B0000161B0000C0
:10008800181B00001A1B0000241600004816000068
:100098006C16000090160000B4160000261B000025
:1000A800281B00002A1B00002C1B00002E1B000030
:1000B800301B0000321B0000341B0000361B000000
:1000C800381B00003A1B00003C1B0000D81600003B
:1000D800401B00000A180000441B0000461B0000DB
:1000E8003A18000062180000921800004E1B000029
:1000F800501B0000521B0000541B0000561B000040
:10010800581B0000161400004A1400009C1400003C
:100118008E170000621B0000641B0000661B0000B5
:100128004A1900006A1B00006C1B00006E1B0000CF
:10013800701B0000721B0000C2180000761B000034
:10014800D014000004150000F21800001A1900006D
:10015800801B0000821B0000841B0000861B00001F
:10016800881B00008A1B00008C1B00008E1B0000EF
:10017800901B0000921B0000941B0000A82C00009C
:10018800981B00009A1B0000E615000034150000BB
:1001980068150000BA150000A41B00007A190000B9
:1001A800A81B0000AA1B0000AC1B0000AA19000035
:1001B800B01B0000B21B0000B41B0000B61B0000FF
:1001C800B81B0000BA1B0000BC1B0000BE1B0000CF
:1001D8000000000000000000000000000000000017
:1001E8000000000000000000000000000000000007
:0801F8000000000000000000FF
:10020000737504308280B76200009382820873A005
:10021000023082803D432A876373C3029377F700DD
:10022000BDEFADE5937606FF3D8ABA960CC34CC38D
:100230000CC74CC74107E36BD7FE11E28280B306BF
:10024000C3408A069702000096966780A60023079F
:10025000B700A306B7002306B700A305B700230520
:10026000B700A304B7002304B700A303B700230318
:10027000B700A302B7002302B700A301B700230110
:10028000B700A300B7002300B700828093F5F50FF5
:1002900093968500D58D93960501D58D61B793967C
:1002A00027009702000096968682E78086FA96805D
:1002B000C1171D8F3E96E374C3F8A5B7011122CE76
:1002C00000102324A4FE2326B4FEB7F700E023A0E9
:1002D0000700B7F700E08146014794C7D8C7B7F7D2
:1002E00000E0054798C30100B7F700E003A8C70086
:1002F0009C470327C4FEC286636CD7000327C4FE55
:10030000C286E313D7FE032784FE6363F700E9BFC9
:100310000100724405618280011122CE0010232663
:10032000A4FEAE87A305F4FE8347B4FE9DC78327D2
:10033000C4FEBD8B0547B317F70093960701C18232
:100340008327C4FE13D7570095670A079387C7DB37
:10035000BA979C43368798CB35A08327C4FEBD8BC4
:100360000547B317F70093960701C1828327C4FEA0
:1003700013D7570095670A079387C7DBBA979C4343
:100380003687D8CB0100724405618280797106D628
:1003900022D40018232EA4FC232CB4FC232AC4FC52
:1003A0002328D4FC8327C4FD958393F7F70F9D8BF7
:1003B000A307F4FE8327C4FD93F7F70FBD8B230734
:1003C000F4FE0327C4FD9307F00F6305F71403271A
:1003D000C4FD9307F00F6301F7148347F4FE91E720
:1003E00085451145EF20A01341A00347F4FE854742
:1003F0006317F70085452145EF206012B5A003473C
:10040000F4FE89476317F70085454145EF20201129
:10041000A1A80347F4FE8D476318F700854513052F
:100420000002EF20C00F89A00347F4FE9147631834
:10043000F700854513050004EF20600E35A0034743
:10044000F4FE95476318F700854513050008EF2073
:10045000000D19A80347F4FE99476317F700854577
:1004600013050010EF20A00B8347E4FE0547B317E8
:10047000F700C207C1832310F4FE032784FD8547DC
:100480006317F702832704FDC207C183A183C20754
:10049000C18389E78D472322F4FE11A8832704FD39
:1004A000C207C183A183C207C1832322F4FE83272D
:1004B00004FDC207C18393F7F70F2324F4FE03471B
:1004C000F4FE95670A079387C7DBBA979C433E877C
:1004D000930704FEBE853A85EF10F01D032784FDC7
:1004E0008547631CF7020347F4FE95670A07938765
:1004F000C7DBBA979C43BE868347E4FE0547B31724
:10050000F700C207C183032644FDBE853685EF1080
:10051000303D21A0010011A00100B25022544561DC
:100520008280011106CE22CC00102326A4FE2324B3
:10053000B4FE8327C4FE99E7E1460146854525457B
:10054000B13545AA0327C4FE89476319F700E14680
:100550000146854513056002153D61AA0327C4FEC7
:10056000C1476318F700E146014685450945393D15
:1005700049A20327C4FEC9476319F700E1460146B3
:100580008545130550061935ADA20327C4FE930710
:1005900000026319F700E146014685451305A002F4
:1005A000F53381AA0327C4FE930720026319F700DD
:1005B000E146014685451305A004C93B1DAA032752
:1005C000C4FE930740026319F700E14601468545E2
:1005D00013058006653B31AA0327C4FE9307000478
:1005E0006319F700E146014685451305A004793BF0
:1005F00009A20327C4FE930720046319F700E1460C
:1006000001468545130500025133E5A00327C4FECA
:10061000930700056319F700E14601468545130578
:10062000C004AD33F9A00327C4FE93072005631966
:10063000F700E1460146854513058008813B55A832
:100640000327C4FE930700066319F700E14601463D
:100650008545130500041D3B69A80327C4FE9307C5
:1006600020066319F700E146014685451305A008F9
:10067000313B41A00327C4FE930700076319F7002D
:10068000E146014685451305200409339DA0032753
:10069000C4FE930720076318F700E146014685452D
:1006A0001945ED31B9A00327C4FE9307400763192C
:1006B000F700E146014685451305C008C13915A874
:1006C0000327C4FE930700086319F700E1460146BB
:1006D0008545130540045D3929A80327C4FE930707
:1006E00020086318F700E146014685451305E00838
:1006F0007139032784FE85476319F7009306800448
:100700000146814529455931C9AA032784FE8D47F1
:10071000631AF700930680040146814513057002B1
:10072000B53165AA032784FEC5476319F700930610
:100730008004014681450D45913945A2032784FE79
:10074000CD47631AF70093068004014681451305DF
:1007500060062D3959A2032784FE93071002631AFD
:10076000F70093068004014681451305B00239392C
:10077000ADA2032784FE93073002631AF7009306A5
:100780008004014681451305B0040931B9A203274D
:1007900084FE93075002631AF70093068004014613
:1007A000814513059006DD360DAA032784FE9307C5
:1007B0001004631AF700930680040146814513056F
:1007C000B004E93619AA032784FE93073004631A9C
:1007D000F7009306800401468145130510027D361B
:1007E000EDA8032784FE93071005631AF70093060C
:1007F00080040146814513052006493EF9A80327D8
:1008000084FE93073005631AF700930680040146BF
:100810008145130590089D3EC9A0032784FE9307D8
:100820001006631AF70093068004014681451305FC
:100830001004A93E5DA0032784FE93073006631AC7
:10084000F70093068004014681451305B0083D3E3C
:1008500069A0032784FE93071007631AF700930625
:10086000800401468145130530040D36BDA00327E1
:1008700084FE930730076319F7009306800401464E
:1008800081451D45213691A8032784FE9307500713
:10089000631AF70093068004014681451305D008CA
:1008A000F53425A8032784FE93071008631AF70080
:1008B000930680040146814513055004C13C31A8CC
:1008C000032784FE930730086319F700930680041A
:1008D000014681451305F008553C0100F240624491
:1008E00005618280011106CE22CC00102326A4FED1
:1008F000AE87A305F4FE95670327C4FE0A07938716
:1009000007DDBA979C433E878347B4FE3E86930536
:1009100050523A85EF10907CB7E700E093868181D2
:100920000327C4FE369703470700BA972380074082
:100930008347B4FE81CF138781818327C4FEBA9792
:1009400083C707003E85EF00702419A813878181B3
:100950008327C4FEBA9783C707003E85EF00D024E3
:100960000100F240624405618280797106D622D48A
:100970000018232EA4FC232CB4FC232AC4FC232817
:10098000D4FC85450545EF109039832504FD0325EA
:1009900044FD413E032744FD8947631CF7000327BC
:1009A00004FD8D476317F70085451145EF10C076AC
:1009B00095A2032744FDC947631CF700032704FDE4
:1009C000CD476317F70085452145EF10E07499A2E4
:1009D000032744FD930720026310F702032704FD59
:1009E00093073002631AF7008545B7071400138593
:1009F0000701EF10607239AA032744FD93074002F4
:100A00006310F702032704FD93075002631AF700EF
:100A10008545B707140013850703EF10E06FDDA8C5
:100A2000032744FD93072004631DF700032704FDFB
:100A3000930730046317F70085450565EF10C06D17
:100A4000D1A8032744FD930720056310F70203276D
:100A500004FD93073005631AF7008545B7072000AA
:100A600013851700EF10406B75A0032744FD930713
:100A700020066310F702032704FD93073006631A6C
:100A8000F7008545B717008013850780EF10C06811
:100A900051A0032744FD930720076312F7020327A1
:100AA00004FD93073007631CF700B7070140D44FDC
:100AB000B707014037074000558FD8CFA1A80327BB
:100AC00044FD930740076312F702032704FD9307D1
:100AD0005007631CF700B7070140D44FB707014028
:100AE00037078000558FD8CF35A0032744FD9307E3
:100AF00020086311F702032704FD93073008631BE6
:100B0000F700B7070140D44FB7070140370700028D
:100B1000558FD8CF8327C4FD91E785451165EF1028
:100B2000102069A80327C4FD85476318F700854591
:100B300037050200EF10102351A00327C4FD894799
:100B40006318F700854537050400EF10B021BDA0FC
:100B50000327C4FD8D476318F70085453705080056
:100B6000EF105020A1A80327C4FD91476318F70098
:100B7000854537051000EF10F01E89A00327C4FD3E
:100B800095476318F700854513050004EF10901D85
:100B900035A00327C4FD99476318F7008545130561
:100BA0000008EF10301C19A80327C4FD9D476317E8
:100BB000F700854513050010EF10D01A832784FD38
:100BC0002320F4FE231204FE231304FE231404FE48
:100BD000231604FEB1472315F4FE95670327C4FDD1
:100BE0000A07938707DDBA979C433E87930704FE65
:100BF000BE853A85EF10502595670327C4FD0A0787
:100C0000938707DDBA979C4385453E85EF101047D3
:100C10000100B250225445618280411106C622C4AF
:100C2000000883C7A18213F7F70F85476316F704FF
:100C3000B707002093870700D84F95670A07938767
:100C400007DDBA979C4383D747001396070141827B
:100C500083C7B18293F7F70F138717009376F70FC7
:100C6000A385D182BE861377F60F93878188B697C6
:100C70002380E700392281A883C7A18213F7F70FE9
:100C80008947631CF70083C7B18293F7F70F850785
:100C900013F7F70FA385E1823DA005472384E18286
:100CA000B707002093870700D84F95670A079387F7
:100CB00007DDBA979C4383D74700C207C18313F768
:100CC000F70FA384E1820100B240224441018280F7
:100CD000411106C622C4000883C7A18213F7F70F8B
:100CE00085476315F704B707002003A7070095673A
:100CF0000A07938707DDBA979C4383D7470013966B
:100D00000701418283C7B18293F7F70F138717005A
:100D10009376F70FA385D182BE861377F60F93875C
:100D20008188B6972380E700A928B9A083C7A1824C
:100D300013F7F70F8947631CF70083C7B18293F756
:100D4000F70F850713F7F70FA385E18235A0054755
:100D50002384E182B707002003A7070095670A07ED
:100D6000938707DDBA979C4383D74700C207C183A7
:100D700013F7F70FA384E1820100B240224441013E
:100D80008280411106C622C4000883C7B18213F7CE
:100D9000F70F8D4763F7E70283C7B18293F7F70F29
:100DA0001387C7FF93878188BA971146BE859567D9
:100DB000138547C7EF203055AA8781E7054723866B
:100DC000E1820100B240224441018280411106C605
:100DD00022C4000803A7818489476308F70003A79A
:100DE00081848D476313F70015280100B240224427
:100DF00041018280411106C622C4000803A78184F4
:100E000091476308F70003A781848D476313F700B8
:100E1000B5280100B240224441018280411122C61E
:100E200000089567938707DD9C4B83D7470013978E
:100E30000701418383C73184BE861377F70F9387F9
:100E40000184B6972380E70083C73184850713F7B1
:100E5000F70FA381E18403C731848547631AF70044
:100E600003C701849307500A6304F700A381018438
:100E700003C731848D476317F700A38101840547B9
:100E80002382E1840100324441018280411122C663
:100E90000008B707002003C7870F8547631DF700C9
:100EA000B70700200947238CE70E03A74183B70744
:100EB000055098C715A0B707002003C7870F8947BB
:100EC000631CF700B70700200547238CE70E03A734
:100ED0000183B707055098C70547238EE18283C772
:100EE0005184850713F7F70FA382E184B7070550F4
:100EF00083C7070013F7F70FB707055013671700ED
:100F00001377F70F2380E70001003244410182800C
:100F1000411122C60008B707002003A7C701956743
:100F20000A07938707DDBA979C4383D74700C20718
:100F3000C18313F7F70F2388E18401003244410194
:100F40008280411122C60008B70700209387C7019D
:100F5000D84B95670A07938707DDBA979C4383D7D9
:100F60004700C207C18313F7F70F93870185A3805A
:100F7000E7000100324441018280011106CE22CCFB
:100F800000102326A4FE0327C4FE23AAE18411280F
:100F90000325C4FE51203D210100F2406244056159
:100FA0008280411122C60008B71702409843B71744
:100FB00002401367170098C3B7170240D443B7170E
:100FC00002403707FFF8758FD8C3B7170240944324
:100FD000B71702403707F7FE7D17758F98C3B7170D
:100FE00002409443B71702403707FCFF7D17758F07
:100FF00098C3B7170240D443B7170240370781FFA1
:101000007D17758FD8C3B717024037079F0098C761
:101010000100324441018280797122D60018232ECA
:10102000A4FC232604FE232404FEB71702409443A5
:10103000B71702404167558F98C3B71702409843CE
:10104000B7070200F98F2324F4FE8327C4FE850727
:101050002326F4FE832784FE99E70327C4FE930723
:101060000050E31CF7FCB71702409843B707020093
:10107000F98F89C785472324F4FE19A0232404FE91
:10108000032784FE85476315F71EB7270240984360
:10109000B72702401367070198C3B7270240984358
:1010A000B7270240719B98C3B72702409443832718
:1010B000C4FD1387F7FFB7376E0193870760B357F7
:1010C000F70213F77700B7270240558F98C33717F9
:1010D0000240B71702405843D8C337170240B7172A
:1010E00002405843D8C337170240B717024058434D
:1010F000D8C30327C4FDB7177A0093870720631B63
:10110000F702B7170240D843B7170240719BD8C304
:10111000B7170240D843B717024013671700D8C368
:101120000100B7170240DC4313F7C7009147E31AE9
:10113000F7FE81A2B7170240D443B7170240370722
:10114000C1FF7D17758FD8C30327C4FDB747950826
:1011500093870740631BF700B7170240D443B717C4
:1011600002404167558FD8C355A80327C4FDB71760
:101170002707938707E0631CF700B7170240D443A3
:10118000B717024037073900558FD8C341A8032746
:10119000C4FDB7E7B80593870780631CF700B7174E
:1011A0000240D443B717024037072900558FD8C3F0
:1011B000B5A00327C4FDB7A74A0493870720631C83
:1011C000F700B7170240D443B717024037071D0096
:1011D000558FD8C3A1A00327C4FDB777DC0293873E
:1011E00007C0631CF700B7170240D443B71702408B
:1011F00037071100558FD8C315A00327C4FDB73793
:101200006E0193870760631BF700B7170240D44352
:10121000B717024037070500558FD8C3B7170240EC
:101220009443B717024037070001558F98C3010058
:10123000B71702409843B7070002F98FF5DBB717DD
:101240000240D843B7170240719BD8C3B71702407A
:10125000D843B717024013672700D8C30100B71758
:101260000240DC4313F7C700A147E31AF7FE11A0C1
:1012700001A0325445618280411106C622C4000893
:101280009306100213060002F167938507200945B3
:10129000EFF0AFED85450945EFF0CFE40547238C2E
:1012A000E1840100B240224441018280797106D676
:1012B00022D40018232EA4FC232CB4FC232AC4FC23
:1012C000232604FEA9A001009567938707DDDC4B68
:1012D000930500043E85EF10806FAA87F5D79567C8
:1012E000938707DDDC4BBE86832784FD13871700B9
:1012F000232CE4FC83870700C207C183BE853685A3
:10130000EF10006A8327C4FE85072326F4FE032717
:10131000C4FE832744FDE348F7FA832744FD3E8556
:10132000B250225445618280011122CE0010232642
:10133000A4FE8327C4FEFD8B0547B316F70037E7ED
:1013400000E08327C4FE9583938707048A07BA9732
:1013500094C30100724405618280011122CE001005
:101360002326A4FE8327C4FEFD8B0547B316F70092
:1013700037E700E08327C4FE9583938707068A0733
:10138000BA9794C30100724405618280011106CEB0
:1013900022CC00102326A4FE0325C4FE71370100D1
:1013A000F240624405618280011106CE22CC001019
:1013B0002326A4FE0325C4FE4D370100F2406244FB
:1013C00005618280411122C60008010032444101BA
:1013D0008280011106CE22CC0010AA87A307F4FE5A
:1013E0008347F4FE99E3EFE01FE20100F24062441C
:1013F00005618280011106CE22CC0010EFE05FE093
:10140000EF2020512326A4FE8327C4FE3E85F24010
:10141000624405618280411122C600089305505242
:10142000B747014013850780EF10C05EAA8789CBBC
:1014300093055052B747014013850780EF10A06D08
:1014400001003244410173002030411122C60008DE
:1014500093055052B747004013850740EF10805B5B
:10146000AA8785CB93055052B747004013850740A4
:10147000EF10606A03A7C18485476315F700EFF09A
:101480003FA901A803A7C18489476314F700EFF0BF
:101490003F8401003244410173002030411122C6D3
:1014A000000893055052B757004013850780EF108E
:1014B0006056AA8789CB93055052B75700401385D1
:1014C0000780EF1040650100324441017300203075
:1014D000411122C6000893055052B75700401385AA
:1014E00007C0EF102053AA8789CB93055052B757F6
:1014F0000040138507C0EF10006201003244410133
:1015000073002030411122C6000893055052375510
:101510000040EF102050AA8789CB930550523755D1
:101520000040EF10405FEFF07F8A0100324441013C
:1015300073002030411122C6000893055052B7278E
:10154000004013850780EF10E04CAA8789CB9305F4
:101550005052B727004013850780EF10C05B010091
:101560003244410173002030411122C60008930526
:101570005052B7270040138507C0EF10A049AA8733
:1015800085CB93055052B7270040138507C0EF1055
:10159000805803A7C18485476315F700EFF07F9A51
:1015A00001A803A7C18489476314F700EFF0EFE6B1
:1015B00001003244410173002030411122C600086D
:1015C0009305505237250040EF10C044AA8799C7B1
:1015D0009305505237250040EF10E053010032448C
:1015E000410173002030411122C60008B7070550A1
:1015F00083C7070193F7F70F918B85C3B707055092
:1016000083C7070113F7F70FB70705506D9B1377D3
:10161000F70F2388E700EFF0EFFD010032444101AE
:1016200073002030411122C600080545EF0050012B
:101630002A8785476315F7000545EF00D0050100AF
:101640003244410173002030411122C6000809458F
:10165000EF00007F2A8785476315F7000945EF00F3
:10166000900301003244410173002030411122C631
:1016700000081145EF00C07C2A8785476315F700F5
:101680001145EF0050010100324441017300203048
:10169000411122C600082145EF00807A2A8785473C
:1016A0006315F7002145EF00007F0100324441013E
:1016B00073002030411122C600084145EF004078F8
:1016C0002A8785476315F7004145EF00C07C01007C
:1016D0003244410173002030411122C60008130535
:1016E0000002EF00E0752A878547631DF7021305A6
:1016F0000002EF00407AB707055083C7070193F750
:10170000F70F918B85C3B707055083C7070113F700
:10171000F70FB70705506D9B1377F70F2388E70086
:10172000EFF04FED13050004EF0080712A87854725
:101730006316F70013050004EF00E07513050008B9
:10174000EF0000702A8785476316F700130500082D
:10175000EF00607413050010EF00806E2A87854744
:101760006316F70013050010EF00E0721305002068
:10177000EF00006D2A8785476316F70013050020E8
:10178000EF006071010032444101730020304111CB
:1017900022C600081305004065252A878547631582
:1017A000F70013050040C52D856713850780492D77
:1017B0002A8785476316F700856713850780E12D23
:1017C0000565BD2D2A8785476314F7000565E1256A
:1017D0000965BD252A8785476314F7000965652DCE
:1017E0001165B92D2A8785476314F70011656525B2
:1017F0002165B9252A8785476314F7002165612D86
:1018000001003244410173002030411122C600081A
:101810008545B7370140138507C0EF001059AA87E7
:1018200081CB8545B7370140138507C0EF00F05ED7
:1018300001003244410173002030411122C60008EA
:10184000854537050040EF005056AA8791C785456A
:1018500037050040EF00705C010032444101730025
:101860002030411122C600088545B7070040138586
:101870000740EF009053AA8781CB8545B70700400A
:1018800013850740EF007059010032444101730095
:101890002030411122C600088545B7170040138546
:1018A0000780EF009050AA8781CB8545B71700408D
:1018B00013850780EF007056010032444101730028
:1018C0002030411122C600088545B7170040138516
:1018D00007C0EF00904DAA8781CB8545B717004020
:1018E000138507C0EF0070530100324441017300BB
:1018F0002030411122C60008854537150040EF0011
:10190000D04AAA8791C7854537150040EF00F050AF
:1019100001003244410173002030411122C6000809
:101920008545B717004013850740EF001048AA8788
:1019300081CB8545B717004013850740EF00F04D78
:1019400001003244410173002030411122C60008D9
:101950008545B737014013850740EF001045AA873A
:1019600081CB8545B737014013850740EF00F04A2A
:1019700001003244410173002030411122C60008A9
:101980008545B7570140138507C0EF001042AA876D
:1019900081CB8545B7570140138507C0EF00F0475D
:1019A00001003244410173002030411122C6000879
:1019B000854537550140EF00503FAA8791C78545BF
:1019C00037550140EF00704501003244410173007A
:1019D0002030411122C60008010032444101730049
:1019E0002030411122C6000895671385C7D6EF2025
:1019F000E010DDBF411106C622C44AC24EC0000835
:101A0000EFF05F9FB747950813850740EFF0EFD6DB
:101A1000EFF09F86930600310546854513052008A3
:101A2000EFE0DF9693060031054685451305F00685
:101A3000EFE0DF9503A741858967938707F4335764
:101A4000F7029307401FB307F7023E8981494A8591
:101A5000CE85EFE0BF8681451305F006EFE0DF8B12
:101A60000145EFF01F97854513052008EFE0DF8A59
:101A700003C7C1838547E318F7FEB707002003C7F4
:101A8000870FB7070020A38CE70E238E0182B707CC
:101A9000002003C7970FB707002083C7870F630A8B
:101AA000F702B707002003C7870F85476317F700C2
:101AB00003A7418323ACE1827DB7B707002003C7AA
:101AC000870F8947E311F7FA03A7018323ACE1826B
:101AD00059BFB707002003C7870F85476317F70073
:101AE00003A7018323ACE182BDBFB707002003C772
:101AF000870F8947E319F7F603A7418323ACE182F7
:101B00009DB701A001A001A001A001A001A001A01A
:101B100001A001A001A001A001A001A001A001A0BD
:101B200001A001A001A001A001A001A001A001A0AD
:101B300001A001A001A001A001A001A001A001A09D
:101B400001A001A001A001A001A001A001A001A08D
:101B500001A001A001A001A001A001A001A001A07D
:101B600001A001A001A001A001A001A001A001A06D
:101B700001A001A001A001A001A001A001A001A05D
:101B800001A001A001A001A001A001A001A001A04D
:101B900001A001A001A001A001A001A001A001A03D
:101BA00001A001A001A001A001A001A001A001A02D
:101BB00001A001A001A001A001A001A001A001A01D
:101BC0007390123497F1FF1F938141D317E10020E6
:101BD00013014143173500001305054297E5FF1F28
:101BE000938545421386818263FAC50083220500EE
:101BF00023A0550011059105E3EAC5FE13858182F6
:101C00009385C18A6377B500232005001105E36D34
:101C1000B5FEFD42739002BCFD4273904280B782D4
:101C200000009382828873A0023097E2FFFF9382C4
:101C3000E24093E2320073905230EF00400197028D
:101C40000000938262DB73901234730020304111E4
:101C500006C622C40008B71702409843B7170240CF
:101C60001367170098C3B7170240D443B717024051
:101C70003707FFF8758FD8C3B71702409443B717DB
:101C800002403707F7FE7D17758F98C3B7170240DC
:101C90009443B71702403707FCFF7D17758F98C331
:101CA000B7170240D443B7170240370781FF7D17AB
:101CB000758FD8C3B717024037079F0098C73120E8
:101CC0000100B240224441018280411106C622C473
:101CD000000831200100B2402244410182800111FC
:101CE00022CE0010232604FE232404FEB717024050
:101CF0009443B71702404167558F98C3B717024006
:101D00009843B7070200F98F2324F4FE8327C4FE0B
:101D100085072326F4FE832784FE99E70327C4FE64
:101D200093070050E31CF7FCB71702409843B7072E
:101D30000200F98F89C785472324F4FE19A02324C4
:101D400004FE032784FE85476318F70EB727024079
:101D50009843B72702401367070198C3B72702408B
:101D60009843B7270240719B98C3B7270240984316
:101D7000B72702401367270098C337170240B717E9
:101D800002405843D8C337170240B71702405843A0
:101D9000D8C337170240B71702405843D8C3B71704
:101DA0000240D443B71702403707C1FF7D17758F34
:101DB000D8C3B7F7FF1F9387C77098439167F98F10
:101DC00099EBB7170240D443B717024037073D00DD
:101DD000558FD8C309A8B7170240D443B71702409C
:101DE0004167558FD8C3B71702409443B7170240D5
:101DF00037070001558F98C30100B7170240984379
:101E0000B7070002F98FF5DBB7170240D843B717C1
:101E10000240719BD8C3B7170240D843B71702409E
:101E200013672700D8C30100B7170240DC4313F73C
:101E3000C700A147E31AF7FE0100724405618280E2
:101E4000797122D60018232EA4FC232604FE232415
:101E500004FEB7070140938707409C430327C4FD56
:101E6000F98F2324F4FEB707014093870740D84B2E
:101E70008327C4FDF98F81CB832784FE89C78547DB
:101E80002326F4FE19A0232604FE8327C4FE3E85E4
:101E9000325445618280011122CE00102326A4FE17
:101EA000B7070140938707400327C4FED8CB010042
:101EB000724405618280397122DE80002326A4FCF1
:101EC0002324B4FC232604FE232004FE232404FE42
:101ED000232E04FC232204FE232C04FC832784FCF1
:101EE0009C47BD8B2326F4FE832784FC9C47C18B33
:101EF00089CB832784FCDC430327C4FED98F2326A8
:101F0000F4FE832784FC83D7070093F7F70FF1CF04
:101F10008327C4FC9C432322F4FE232404FE65A8EB
:101F2000832784FE0547B317F700232EF4FC83278D
:101F300084FC83D707003E878327C4FDF98F2320C5
:101F4000F4FE032704FE8327C4FD6311F7088327EB
:101F500084FE8A07232EF4FC8327C4FD3D47B31774
:101F6000F700232CF4FC832784FD93C7F7FF032796
:101F700044FEF98F2322F4FE8327C4FD0327C4FE09
:101F8000B317F700032744FED98F2322F4FE8327DB
:101F900084FC984793078002631BF700832784FE25
:101FA00005473317F7008327C4FCD8CB05A0832748
:101FB00084FC984793078004631AF700832784FE04
:101FC00005473317F7008327C4FC98CB832784FE8B
:101FD00085072324F4FE032784FE9D47E3F2E7F4FC
:101FE0008327C4FC032744FE98C3832784FC03D7BC
:101FF00007009307F00F63F1E70E8327C4FCDC436F
:102000002322F4FE232404FE75A8832784FEA1075F
:102010000547B317F700232EF4FC832784FC83D7EE
:1020200007003E878327C4FDF98F2320F4FE032792
:1020300004FE8327C4FD6312F708832784FE8A0702
:10204000232EF4FC8327C4FD3D47B317F700232C50
:10205000F4FC832784FD93C7F7FF032744FEF98F21
:102060002322F4FE8327C4FD0327C4FEB317F70021
:10207000032744FED98F2322F4FE832784FC98474C
:1020800093078002631BF700832784FEA10705479F
:102090003317F7008327C4FCD8CB832784FC9847E9
:1020A00093078004631BF700832784FEA10705477D
:1020B0003317F7008327C4FC98CB832784FE85075A
:1020C0002324F4FE032784FE9D47E3F0E7F48327EF
:1020D000C4FC032744FED8C30100725421618280EE
:1020E000011122CE00102326A4FEAE872322C4FEB7
:1020F0002315F4FE832744FE99C70357A4FE8327C4
:10210000C4FE98CB31A00357A4FE8327C4FED8CBCE
:102110000100724405618280797122D60018232E55
:10212000A4FC232CB4FC232404FE232204FE232637
:1021300004FE232004FE8327C4FD63D80700B707ED
:102140000140DC4F2326F4FE31A0B7070140DC43F9
:102150002326F4FE8327C4FDC183BD8B2320F4FE18
:102160000327C4FDC167FD17F98F2324F4FE03275D
:10217000C4FDB70730007D8FB70730006315F70245
:102180000327C4FEB70700F1FD17F98F2326F4FEDD
:10219000B7070140D443B7070140370700F17D1767
:1021A000758FD8C3ADA00327C4FDB7071000F98F02
:1021B0008DCB832704FE0D47B317F7002322F4FECF
:1021C000832744FE93C7F7FF0327C4FEF98F232616
:1021D000F4FE0327C4FEB707000FD98F2326F4FEB1
:1021E0003DA08327C4FDD5839207032784FEB31740
:1021F000F70093C7F7FF0327C4FEF98F2326F4FEE9
:102200000327C4FEB707000FD98F2326F4FE8327C8
:1022100084FD91CF8327C4FDD5839207032784FED5
:10222000B317F7000327C4FED98F2326F4FE8327B4
:10223000C4FD63D80700B70701400327C4FED8CF09
:1022400031A0B70701400327C4FED8C301003254B0
:1022500045618280397122DE80002326A4FC23227E
:1022600004FE232604FE232004FE232E04FC232444
:1022700004FEB7170240DC43B18B2322F4FE032790
:1022800044FE91476303F702032744FEA147630618
:10229000F702832744FE639907148327C4FC37178A
:1022A0007A001307072098C389AA8327C4FC37172D
:1022B0007A001307072098C389A2B7170240D843B2
:1022C000B7073C00F98F2326F4FEB7170240D84326
:1022D000C167F98F2320F4FE8327C4FEC9838907D1
:1022E0002326F4FEB7F7FF1F9387C77098439167C3
:1022F000F98F91EB0327C4FEC5476319F704C9475B
:102300002326F4FEA1A00327C4FE89476315F70026
:10231000C9472326F4FE0327C4FEBD476318F70010
:10232000B5472326F4FE85472324F4FE0327C4FE85
:10233000C1476315F700BD472326F4FE0327C4FEFB
:10234000C5476315F700C1472326F4FE832704FE23
:10235000A1E3B7470240938707809C43C18B89CF95
:102360000327C4FEB7177A00938707203307F702C5
:102370008327C4FC98C399A80327C4FEB7173D0060
:10238000938707903307F7028327C4FC98C33DA8BF
:10239000B7170240D843B7070200F98F89CF032748
:1023A000C4FEB7173D00938707903307F7028327D2
:1023B000C4FC98C321A80327C4FEB7177A009387EB
:1023C00007203307F7028327C4FC98C3032784FE42
:1023D00085476313F7028327C4FC9C4313D7170078
:1023E0008327C4FC98C309A88327C4FC37177A0045
:1023F0001307072098C311A00100B7170240DC4360
:1024000093F7070F2322F4FE832744FE91832322B0
:10241000F4FEB707002013874704832744FEBA97CA
:1024200083C7070093F7F70F232EF4FC8327C4FC20
:1024300098438327C4FD3357F7008327C4FCD8C3D0
:10244000B7170240DC4393F707702322F4FE83277B
:1024500044FEA1832322F4FEB7070020138747041C
:10246000832744FEBA9783C7070093F7F70F232EFD
:10247000F4FC8327C4FCD8438327C4FD3357F700FB
:102480008327C4FC98C7B7170240D8439167938746
:102490000780F98F2322F4FE832744FEAD83232295
:1024A000F4FEB707002013874704832744FEBA973A
:1024B00083C7070093F7F70F232EF4FC8327C4FC90
:1024C000D8438327C4FD3357F7008327C4FCD8C7FC
:1024D000B7170240D843B167F98F2322F4FE832750
:1024E00044FEB9832322F4FEB70700201387C70FE9
:1024F000832744FEBA9783C7070093F7F70F232E6D
:10250000F4FC8327C4FCD8478327C4FD3357F70264
:102510008327C4FC98CB0100725421618280011191
:1025200022CE00102326A4FE2324B4FE832784FE9B
:1025300099CBB7170240944FB71702400327C4FE48
:10254000558F98CF21A8B7170240944F8327C4FE18
:1025500013C7F7FFB7170240758F98CF0100724479
:1025600005618280011122CE00102326A4FE2324BF
:10257000B4FE832784FE99CBB7170240D44FB71718
:1025800002400327C4FE558FD8CF21A8B7170240B9
:10259000D44F8327C4FE13C7F7FFB7170240758FC8
:1025A000D8CF0100724405618280797122D600186B
:1025B000232EA4FCAE87231DF4FC232604FE231542
:1025C00004FE231404FE8327C4FD83D70701139759
:1025D000070141838357A4FDF98F2315F4FE832758
:1025E000C4FD83D7C7001397070141838357A4FD18
:1025F000F98F2314F4FE8357A4FE81CB835784FE06
:1026000089C785472326F4FE19A0232604FE8327C5
:10261000C4FE3E85325445618280011122CE0010F5
:102620002326A4FEAE872315F4FE8357A4FE93C78A
:10263000F7FF1397070141838327C4FE2398E70020
:1026400001007244056182805D7186C6A2C4800863
:10265000232EA4FA232CB4FA232604FE232404FEFA
:10266000232204FE232004FE232E04FC8327C4FB24
:10267000232EF4FC8327C4FB83D70701C207C18341
:102680002326F4FE0327C4FEB567FD17F98F232622
:10269000F4FE832784FB83D767003E878327C4FE2D
:1026A000D98F2326F4FE8327C4FE139707014183A5
:1026B0008327C4FB2398E7008327C4FB83D7C70085
:1026C000C207C1832326F4FE0327C4FEBD67938798
:1026D000379FF98F2326F4FE832784FB03D7470017
:1026E000832784FB83D78700D98F13970701418302
:1026F000832784FB83D7A700D98FC207C1833E8776
:102700008327C4FED98F2326F4FE8327C4FE1397A4
:10271000070141838327C4FB2396E7008327C4FB7B
:1027200083D74701C207C1832326F4FE0327C4FED3
:10273000C1679387F7CFF98F2326F4FE832784FBA5
:1027400083D7C7003E878327C4FED98F2326F4FE94
:102750008327C4FE1397070141838327C4FB239A71
:10276000E700930784FC3E85EFF0DFAE0327C4FD4E
:10277000B7470140938707806317F700832744FD1D
:102780002324F4FE29A0832704FD2324F4FE8327B9
:10279000C4FB83D7C700C207C183C207C18763D206
:1027A0000702032784FEBA878607BA978E073E97EB
:1027B000832784FB9C438607B357F7022322F4FE4A
:1027C00005A0032784FEBA878607BA978E073E972F
:1027D000832784FB9C438A07B357F7022322F4FE26
:1027E000032744FE93074006B357F70292072326B8
:1027F000F4FE8327C4FE13D7470093074006B307B0
:10280000F702032744FEB307F7402320F4FE832793
:10281000C4FB83D7C700C207C183C207C18763D285
:102820000702832704FE8E071387270393074006BA
:10283000B357F7029D8B0327C4FED98F2326F4FEDE
:1028400005A0832704FE92071387270393074006FA
:10285000B357F702BD8B0327C4FED98F2326F4FE9E
:102860008327C4FE1397070141838327C4FB239466
:10287000E7000100B640264461618280011122CE4A
:1028800000102326A4FE2324B4FE832784FE95C3D0
:102890008327C4FE83D7C700139707014183896745
:1028A000D98F1397070141838327C4FE2396E7003E
:1028B00015A08327C4FE83D7C70013970701418360
:1028C000F977FD17F98F1397070141838327C4FE1A
:1028D0002396E7000100724405618280797122D657
:1028E0000018232EA4FCAE87232AC4FC231DF4FC6D
:1028F000232404FE232204FE232004FE232604FEB8
:102900008327C4FD2326F4FE8357A4FD93F7F70F16
:10291000958393F7F70F2324F4FE8357A4FDFD8BD3
:102920002322F4FE832744FE0547B317F700232034
:10293000F4FE032784FE85476318F7008327C4FE4F
:10294000B1072326F4FE0DA0032784FE89476318F0
:10295000F7008327C4FEC1072326F4FE31A0832796
:10296000C4FED1072326F4FE832744FD99CB832799
:10297000C4FE94438327C4FE032704FE558F98C3E7
:1029800021A88327C4FE9443832704FE13C7F7FFBF
:102990008327C4FE758F98C301003254456182803D
:1029A000011122CE00102326A4FEAE872315F4FECB
:1029B0008357A4FE93F7F71F1397070141838327DB
:1029C000C4FE2392E70001007244056182807971A0
:1029D00022D60018232EA4FCAE87231DF4FC232648
:1029E00004FE8327C4FD83D70700139707014183A3
:1029F0008357A4FDF98FC207C18389C78547232662
:102A0000F4FE19A0232604FE8327C4FE3E8532541B
:102A100045618280797122D60018232EA4FCAE87EE
:102A2000231DF4FC232204FE232604FE232004FE9F
:102A3000232404FE8357A4FD93F7F70F958393F7A0
:102A4000F70F2320F4FE8357A4FDFD8B2326F4FE0D
:102A50008327C4FE0547B317F7002326F4FE032798
:102A600004FE8547631FF7008327C4FD83D7C70093
:102A7000C207C1833E878327C4FEF98F2326F4FE55
:102A80003DA8032704FE8947631FF7008327C4FD81
:102A900083D70701C207C1833E878327C4FEF98F0E
:102AA0002326F4FE29A88327C4FD83D74701C20744
:102AB000C1833E878327C4FEF98F2326F4FE835704
:102AC000A4FDA183C207C1832322F4FE832744FE11
:102AD0000547B317F7002322F4FE8327C4FD83D7ED
:102AE0000700C207C1833E87832744FEF98F232254
:102AF000F4FE8327C4FE81CB832744FE89C7854724
:102B00002324F4FE19A0232404FE832784FE3E859B
:102B1000325445618280797122D60018232EA4FC9C
:102B2000AE87231DF4FC231704FE231604FE8357EF
:102B3000A4FDA1832317F4FE8357E4FE0547B317D2
:102B4000F7002316F4FE8357C4FE93C7F7FF1397CD
:102B5000070141838327C4FD2390E700010032541D
:102B600045618280011122CE0010AA87A307F4FEDE
:102B7000B70700500347F4FE42074183239AE70258
:102B8000B707005083C7670313F7F70FB707005065
:102B9000719B1377F70F238BE702010072440561E5
:102BA0008280011122CE0010AA87A307F4FEB70786
:102BB00000500347F4FE42074183239CE702B70716
:102BC000005083C7A70313F7F70FB7070050719B97
:102BD0001377F70F238DE7020100724405618280AD
:102BE000797106D622D40018AA87A30FF4FCA30794
:102BF00004FE15A803A781868347F4FEBA9703C78E
:102C0000070083A681868347F4FE93870704B6975F
:102C10001347F7FF1377F70F2380E7008347F4FE8E
:102C20008507A307F4FE0347F4FE8347F4FDE3633F
:102C3000F7FC8347F4FD3E8535370100B25022543E
:102C400045618280797106D622D40018AA87A30F25
:102C5000F4FCA30704FE15A803A7C1868347F4FE6E
:102C6000BA9703C7070083A6C1868347F4FE9387FC
:102C70000704B6971347F7FF1377F70F2380E70092
:102C80008347F4FE8507A307F4FE0347F4FE83475A
:102C9000F4FDE363F7FC8347F4FD3E85193701003B
:102CA000B250225445618280011122CE00102307C8
:102CB00004FEB707005083C76700A306F4FE8347EE
:102CC000D4FE898BE38C073AB707005083C777009F
:102CD00093F7F70F93F707034147E386E738414738
:102CE0006346F700E38D07206F00303813070002BA
:102CF000E386E70413070003E399E736B7070050BC
:102D000019472389E702B70700501147A389E70253
:102D100083A7418603C7670083C77700A207D98FBF
:102D2000139707014183239DE18683A7418603C74B
:102D30001700238CE18683A7418683C707002306FB
:102D4000F4FEA30704FE230704FE83A7418683C77E
:102D5000070093F70706638B071283C7818793F7F2
:102D6000F70F93F70702D5C383C7818793F7F70F50
:102D700013071002638BE700130720026389E7083B
:102D8000130700026387E708ADA81387C18023A853
:102D9000E1869D47A307F4FE83D7A1871397070118
:102DA00041839D4763E9E70083D7A187C207C183B9
:102DB00093F7F70F11A0A147A307F4FE03A74186DD
:102DC00083A701878346F4FE3686BE853A85EF00E9
:102DD000F03583D7A1871397070141838347F4FE1A
:102DE000C207C183B307F740139707014183239DAF
:102DF000E18603A701878347F4FE3E9723A8E18677
:102E000011A8FD572307F4FE31A0010021A0010005
:102E100011A001000347E4FE9307F00F6303F76876
:102E20008347F4FE13970701418383D7A187C20725
:102E3000C1836379F7008347F4FE13970701418349
:102E4000239DE18683D741871397070141839D47DF
:102E500063E9E70083D74187C207C18393F7F70F80
:102E600011A0A147A307F4FE83A701870347F4FE3F
:102E70003A86BE851385C185EF00502B03A70187D5
:102E80008347F4FE3E9723A8E18621AD83C781875F
:102E900093F7F70F2D47636BF75E1397270095673E
:102EA0009387C7E9BA979C43828783A7418603C764
:102EB000270083C73700A207D98FC207C183A18328
:102EC000C207C183130720026365F7121397270017
:102ED00095679387C7ECBA979C438287156713075A
:102EE00007DF23A8E186C947A307F4FE39A21567C7
:102EF000130747E023A8E18693073004A307F4FEF5
:102F0000EDA883A7418603C7270083C73700A20720
:102F1000D98FC207C18393F7F70F05476386E7028E
:102F200005476344F70089CB99A809476387E702FF
:102F30000D47638DE702A1A01387018223A8E186D4
:102F40009147A307F4FE81A015671307C7E523A8DF
:102F5000E186B947A307F4FE3DA015671307C7E64E
:102F600023A8E186B147A307F4FE31A8156713072C
:102F700087E723A8E186D947A307F4FE29A0FD57D8
:102F80002307F4FE010095A81567130787E423A81B
:102F9000E186D147A307F4FE8DA01567130707E963
:102FA00023A8E186A947A307F4FE81A883C78180EF
:102FB00093F7F70F9DE7130610049567938567E075
:102FC000B707002013856705EF005016370700206C
:102FD0001307470523A8E18693073004A307F4FEEF
:102FE00029A8FD572307F4FE09A8FD572307F4FE7F
:102FF00029A0FD572307F4FE01008347F4FE139731
:103000000701418383D7A187C207C1836379F70092
:103010008347F4FE139707014183239DE18683D7FD
:10302000A1871397070141839D4763E9E70083D791
:10303000A187C207C18393F7F70F11A0A147A30788
:10304000F4FE03A7418683A701878346F4FE3686F4
:10305000BE853A85EF00900D03A701878347F4FEF4
:103060003E9723A8E18635A983A7418603C7270099
:1030700083C73700A207D98FC207C18393F7F70F21
:10308000139707014183239DE18621A983A74186E8
:1030900003C771871377F70F2380E70083D7A187D2
:1030A000139707014183854763F6E73E0547239D54
:1030B000E186CDA683A7418603C7270083C73700D3
:1030C000A207D98FC207C18313F7F70FA38BE1863D
:1030D000C9AE83A7418683C7070013F7F701894765
:1030E000631FF70C83A7418603C7470083C75700B8
:1030F000A207D98FC207C18393F7F70F09476388E7
:10310000E70409476346F70005476387E7085DA0C2
:1031100013071008638BE70413072008639CE70874
:10312000B707005083C7A70393F7F70FE207E187BC
:10313000E19BE207E18793E7270013978701618707
:10314000B70700501377F70F238DE702ADA8B70735
:10315000005083C7B70313F7F70FB7070050619B01
:103160001377F70FA38DE702B9A8B707005083C7FD
:10317000670393F7F70FE207E187E19BE207E18737
:1031800093E72700139787016187B70700501377EC
:10319000F70F238BE70205A8B707005083C7770313
:1031A00013F7F70FB7070050619B1377F70FA38B47
:1031B000E70211A8FD572307F4FE010029A0FD57DF
:1031C0002307F4FEF9ACF1AC9387C18583C70700F0
:1031D000FD8BA1E39387C18503C7270083C7370011
:1031E000A207D98F1397070141838547631FF70013
:1031F0009307000A93F7070289C70547238BE186E7
:103200004DA4FD572307F4FE69ACFD572307F4FED8
:1032100049AC9387C18583C7070013F7F701894736
:10322000631CF7109387C18503C7270083C7370046
:10323000A207D98FC207C183E5EF9387C18503C772
:10324000470083C75700A207D98FC207C18393F7EE
:10325000F70F09476387E70409476346F700054707
:10326000638DE708C9A0130710086382E7061307F8
:103270002008639AE70AB707005083C7A70393F7AC
:10328000F70F37070050F19B93F7F70F230DF70265
:103290003707005093E7370093F7F70F230DF70236
:1032A00045A0B707005083C7B70393F7F70F370759
:1032B0000050F19B93F7F70FA30DF702370700506B
:1032C00093E7370093F7F70FA30DF70295A8B70719
:1032D000005083C7670393F7F70F37070050F19B40
:1032E00093F7F70F230BF7023707005093E73700E8
:1032F00093F7F70F230BF702A1A0B707005083C77E
:10330000770393F7F70F37070050F19B93F7F70F09
:10331000A30BF7023707005093E7370093F7F70F37
:10332000A30BF70231A8FD572307F4FE010009A8FB
:10333000FD572307F4FEB5A2FD572307F4FE95A21F
:103340008DA283A741862380070083D7A187139787
:1033500007014183854763F1E7140547239DE18613
:1033600025AA238E018483D74187139707014183C0
:10337000854763F5E7120547239AE18605A2238E68
:1033800001849387C185A38007009387C18503C704
:10339000470083C75700A207D98F139707014183BE
:1033A000930710086311F702B707005083C767033C
:1033B00093F7F70F13F737008D47631DF70A05479B
:1033C000238EE18445A89387C18503C7470083C73F
:1033D0005700A207D98F13970701418385476311CF
:1033E000F702B707005083C7770393F7F70F13F778
:1033F00037008D476310F7080547238EE1849DA8A9
:103400009387C18503C7470083C75700A207D98F99
:10341000139707014183930720086311F702B70749
:10342000005083C7A70393F7F70F13F737008D47B3
:103430006312F7040547238EE1842DA89387C18585
:1034400003C7470083C75700A207D98F1397070107
:10345000418389476310F702B707005083C7B7035A
:1034600093F7F70F13F737008D476315F7000547FC
:10347000238EE18483D741871397070141838947CE
:1034800063F0E7020947239AE18619A8FD5723074D
:10349000F4FE01A8010031A0010021A0010011A04B
:1034A00001000347E4FE9307F00F631DF700B70721
:1034B00000501D472389E702B70700501D47A38925
:1034C000E7027DA68307C4FE63D5070483D7A187DF
:1034D000139707014183A14763E9E70083D7A187D9
:1034E000C207C18393F7F70F11A0A147A307F4FE0A
:1034F00083D7A1871397070141838347F4FEC2074F
:10350000C183B307F740139707014183239DE186E9
:1035100019A0A30704FEB70700500347F4FE4207B3
:1035200041832398E702B707005011472389E70238
:10353000B70700501147A389E7021DAEB707005037
:1035400083C7770093F7F70F93F7F703130710027A
:103550006384E71213072002638CE7141307000249
:10356000639DE71883C7818793F7F70F1547638F2C
:10357000E70819476393E70E83D7A18713970701DD
:1035800041839D4763E9E70083D7A187C207C183D1
:1035900093F7F70F11A0A147A307F4FE03A74186F5
:1035A00083A701878346F4FE3686BE853A85BD2E05
:1035B00083D7A1871397070141838347F4FEC2078E
:1035C000C183B307F740139707014183239DE18629
:1035D00003A701878347F4FE3E9723A8E186B70738
:1035E00000500347F4FE420741832398E702B707E0
:1035F000005083C7270313F7F70FB707005013478F
:1036000047001377F70F2389E702B5A0B7070050EB
:1036100083C7370093F7F70FE207E18793F707F8BF
:1036200013978701618783D7A187C207C183E20708
:10363000E187D98F139787016187B7070050137708
:10364000F70FA381E700B707005009472389E70276
:10365000B7070050A389070239A8B707005023987D
:103660000702B707005009472389E702B707005050
:10367000A3890702010059A0B707005083C7670359
:1036800013F7F70FB7070050719B1377F70F238BD2
:10369000E702B707005083C7670313F7F70FB707B1
:1036A0000050134747001377F70F238BE702B9A0A9
:1036B000B707005083C7A70313F7F70FB7070050EA
:1036C000134747001377F70F238DE702B707005022
:1036D00083C7A70393F7F70FE207E187F19BE207A0
:1036E000E18793E72700139787016187B7070050A9
:1036F0001377F70F238DE70211A0010095AAB707F2
:10370000005083C7770093F7F70F93F7F703054748
:103710006383E70C09476382E710639A071483C742
:10372000818793F7F70F3E8793070002631FF7081F
:1037300083A7418683C7070085E383A7418683C7A4
:10374000170099EB83A7418683C7270091E783A7DA
:10375000418683C7370095CF83A7418683C737004B
:103760001397870183A7418683C72700C2075D8F10
:1037700083A7418683C71700A207D98F03A7418675
:1037800003470700D98FBE859567138587D7912C8E
:1037900025A883A7418683C76700BE8595671385E3
:1037A00087D8812483A7418683C74700BE85956754
:1037B000138587D93D2483A7418683C75700BE85DB
:1037C0009567138587DA312C0100B70700509C47B5
:1037D000A307F4FE41A8B707005083C7770093F70B
:1037E000F70F93F70704A5CFB707005083C77703F8
:1037F00013F7F70FB7070050134747001377F70F7A
:10380000A38BE702B70700509C47A307F4FE83474A
:10381000F4FE3E85EFF0CFBC99A0B707005083C7F8
:10382000770093F7F70F93F7070485CFB70700509A
:1038300083C7B70313F7F70FB707005013474700C5
:103840001377F70FA38DE702B70700509C47A30734
:10385000F4FE8347F4FE3E85EFF0CFBE19A00100D1
:1038600039A0010029A0010021A0010011A0010040
:10387000B707005009472383E70079A08347D4FEA8
:10388000858BB9CFB7070050A3810700B707005059
:10389000A3890702B7070050A38B0702B7070050A0
:1038A000A38D0702B707005009472389E702B7072E
:1038B00000500947238BE702B70700500947238DC3
:1038C000E702B707005083C7670013F7F70FB70782
:1038D0000050136717001377F70F2383E7002DA01D
:1038E0008347D4FE918B99CBB707005083C757000D
:1038F000B707005011472383E70039A0B7070050EE
:103900000347D4FE2383E70001007244056173007E
:103910002030011122CE0010F32700302326F4FEC0
:103920008327C4FE3E85724405618280B3C7A5002B
:103930008D8B3307C50081E78D4763EEC700AA87EB
:103940006370E50A83C6050085078505A38FD7FE4A
:10395000E3EAE7FE828093763500AA8791CA83C6A0
:10396000050085078505A38FD7FE93F63700FDB7C1
:103970009376C7FF138606FE63F0C70683A3050090
:1039800083A2450083AF850003AFC50083AE050168
:1039900003AE450103A3850183A8C50193854502B4
:1039A00023A0770003A8C5FF23A2570023A4F70193
:1039B00023A6E70123A8D70123AAC70123AC6700E8
:1039C00023AE17019387470223AE07FF75B79041D7
:1039D0009107910523AEC7FEE3EBD7FEE3E4E7F6DC
:1039E000828039713EDA2ED232D436D63AD842DCD1
:1039F00046DE9387418122CC804326CA06CEAA8424
:103A000009C41C4C99E32285892B0C44541026864A
:103A1000228536C6EF007019F2406244D24421611B
:103A20008280011126CA4AC806CE22CC4EC652C494
:103A3000AA842E8901C51C4D91E305239C4C80442A
:103A400099E32685192B9717000093872753631C4A
:103A5000F402C0408357C400A18BB1C71C48A1C762
:103A6000FD59294A1C4483450900FD17B1E91CC4CE
:103A700063DE07062286A94526856528FD5763086B
:103A8000F502294535A09717000093872751631445
:103A9000F4008044C1B7971700009387274CE31BBD
:103AA000F4FAC04445BFA2852685A12255D97D558B
:103AB000F2406244D2444249B249224A05618280BE
:103AC0001CC4050963D70700184C63CBE700638962
:103AD00045011C401387170018C02380B70059B751
:103AE00022862685B920E31F35F7D1B71C401387FE
:103AF000170018C029472380E70061B793874181E9
:103B0000AA85884339BF05C67D160147B307E5007E
:103B1000B386E50083C7070083C606006396D70017
:103B20006304C7000507FDF33385D7408280014554
:103B30008280011122CC26CA4AC806CE4EC6AA846B
:103B40002E89328401C51C4D91E30129971700008D
:103B50009387C7426319F406C0401C4C1CC48357AA
:103B6000C400A18BC9C31C48BDCF1C480840937931
:103B7000F90F1379F90F1D8D5C486346F500A28596
:103B80002685652C2DE51C440505FD171CC41C402D
:103B90001387170018C0238037015C486389A7008A
:103BA0008357C400858B81CBA9476316F900A28592
:103BB000268561240DEDF24062444A85D244424993
:103BC000B24905618280971700009387273D6314EF
:103BD000F400804459B79717000093872738E31EF5
:103BE000F4F6C0449DBFA285268521203DDD7D5988
:103BF000D9B741119387418126C2844322C44AC068
:103C000006C62A892E8489C49C4C99E32685B12650
:103C10009717000093878736631CF402C040031790
:103C2000C40093170701C18393F68700B5EE93F69E
:103C300007019DEEA5472320F9001367070423160B
:103C4000E4007D55B2402244924402494101828001
:103C500097170000938787346314F4008044C1B73A
:103C6000971700009387872FE31BF4FAC04445BFE2
:103C7000918B8DC74C5889C9930744046384F50020
:103C80004A858123232A04028357C4002322040087
:103C900093F7B7FD2316F4001C481CC08357C400DB
:103CA00093E787002316F4001C4881EF8357C40074
:103CB0001307002093F707286385E700A2854A854C
:103CC00095218357C40013F7170005C75C482324C8
:103CD0000400B307F0401CCC1C480145A5F783172E
:103CE000C40013F7070839DF93E707042316F4002D
:103CF00089BF898B014791E3584818C4F1BF83D726
:103D0000C500011122CC26CA06CE4AC84EC613F7FA
:103D10008700AA842E8471EFD841634DE000B8413A
:103D2000634AE0000145F2406244D2444249B2494C
:103D30000561828058547DD703A90400939637010A
:103D400023A0040063DD060670488357C400918BEE
:103D500099C75C401D8E5C5899C33C401D8E5C54D5
:103D60000C50814626858297FD570357C400631D7A
:103D7000F5009440F54763E8D706B707402085076C
:103D8000B3D7D700858BA5C31C48232204001CC0D1
:103D90009317370163D80700FD576314F5009C4063
:103DA00091E368C84C5823A02401ADDD9307440477
:103DB0006384F50026853121232A0402A5B70C501F
:103DC0000146854626850297FD572A86E31FF5F6AC
:103DD0009C40A5DF75476385E70059476394E70476
:103DE00023A0240181B7136707042316E4007D553F
:103DF0001DBF83A90501E38709F203A905008D8B87
:103E000023A0350133093941014791E3D84918C44A
:103E1000E35A20F11C540C50CA864E8626858297A0
:103E20006349A0008357C40093E707042316F400F6
:103E30007DBFAA993309A940E1BF9C49A5C30111DF
:103E400022CC06CE2A8411C51C4D81E72EC6312214
:103E5000B2459717000093876712639CF5004C40AA
:103E60008397C5009DC722856244F24005616FF0CB
:103E70001FE997170000938767126394F5000C44BD
:103E8000C5B7971700009387670DE39BF5FC4C447B
:103E9000C1BFF240624401450561828001458280D4
:103EA000411122C406C62A842316B5002317C50073
:103EB00023200500232205002324050023220506D4
:103EC00023280500232A0500232C050021468145CF
:103ED0001305C505EFC00FB4971700009387C7B44B
:103EE0005CD097170000938727B71CD49717000062
:103EF000938767BB5CD497170000938727BE00D0D9
:103F00001CD8B2402244410182809705000093856D
:103F100005F3B1A2411126C2130680069384F5FF72
:103F2000B384C4024AC02E8922C406C693854407BE
:103F30002D2E2A8401CD23200500232225013105C1
:103F400008C4138684068145EFC0CFAC2285B240F9
:103F5000224492440249410182801C4DADE341114B
:103F600006C622C497070000938767FA1CD593877B
:103F700041829C43232405042326050423280504A9
:103F80006314F50085471CCD2A841D2848C022856E
:103F9000052808C422852D2048C448400146914583
:103FA000013708440546A545E53D48440946C9454D
:103FB000C53D85471CCCB2402244410182808280AD
:103FC00041119387418226C284434AC006C69C4C55
:103FD00022C42A8999E3268549379384840480443E
:103FE000DC40FD1763D607009C40B9CF8440C5BFB5
:103FF0000317C40039E7C17785072322040623206D
:10400000040023220400232404005CC423280400A9
:10401000232A0400232C0400214681451305C405EE
:10402000EFC04F9F232A0402232C040223240404FC
:10403000232604042285B2402244924402494101CD
:1040400082801304840671BF91454A85EFF09FEC8E
:1040500088C049FDB1472320F9000144E1BF7971CF
:1040600022D44AD052CC56CA5AC85EC606D626D2E8
:104070004ECE2A8AAE8A130485040149054BFD5BA6
:1040800009ECB25022544A8592540259F249624ACC
:10409000D24A424BB24B456182800444832944009A
:1040A000FD1963D409000040E1BF83D7C400637BDE
:1040B000FB008397E40063877701A6855285829A87
:1040C0003369A90093848406E1BF1971A6DAAE842E
:1040D0008395E500A2DC86DE328463DC050083D7AD
:1040E000C40023A0060093F7070885E79307004064
:1040F0001DA0300836C6EF00F023B246E34105FEAE
:104100007247BD67F98F7977BA9793B717009CC24A
:10411000F1BF930700041CC0F6506654D654014505
:104120000961828083D7C500011122CC06CE26CA40
:104130004AC8898B2E8489CF930774041CC01CC87D
:1041400085475CC8F2406244D2444249056182809E
:1041500074003000AA84953FA2452A892685312221
:1041600001ED8317C40013F7072069FFF19B93E764
:1041700027002316F400C9B797070000938727D9B3
:104180009CD48357C40008C008C893E707082316C7
:10419000F400A2475CC8B24791CF8315E40026859E
:1041A000EF00F01B01C98357C400F19B93E7170090
:1041B0002316F4008357C4003369F9002316240141
:1041C00051B7DDC183A7C5FF411122C406C626C26F
:1041D0001384C5FF63D307003E94AA84EF00101F29
:1041E0009387C1879C4381EF2322040023AE8186FD
:1041F0002244B2402685924441016F00501D637EE7
:10420000F40014403307D4006396E7009843DC437E
:10421000369718C05CC0D9BFBA87D84319C3E37DAD
:10422000E4FE94433386D700631F86001040B296A5
:1042300094C33386D700E31DC7FA10435843B296A0
:1042400094C3D8C375B76375C400B1479CC04DB75C
:104250001040B306C4006316D70014435843B29607
:1042600014C058C0C0C369B78280011126CA9384A4
:104270003500F19806CE22CC4AC84EC6A104B147FB
:1042800063F3F404B14463E2B4042A89EF00101428
:104290009387C18798433A8439E0938701889C4388
:1042A00091E781454A85992F23A0A188A6854A8553
:1042B000B127FD5963193507B1472320F9004A8515
:1042C000EF00F01029A0E3D004FCB1471CC1014568
:1042D000F2406244D2444249B249056182801C40A6
:1042E000858F63CF0702AD4663F6F6001CC03E948F
:1042F00004C031A05C406313870223AEF1864A8577
:10430000EF00F00C1305B4009307440061993307E4
:10431000F5405DDF3A94898F1CC05DBF5CC3C5B7B3
:104320002287404095BF130435007198E30285FC55
:10433000B305A4404A85D925E31C35FBB5BF1C460F
:10434000FD171CC663DA0700184E63C5E700A947CE
:104350006394F5006FF0EFFD1C422E851387170064
:1043600018C22380B7008280011122CC26CA4AC815
:104370004EC652C406CE2A89AE893284B304D60012
:104380007D5A63149400014509A8834504004E86B4
:104390004A8575370504E31645FFF2406244D2446E
:1043A0004249B249224A05618280357122CD26CB2D
:1043B0004AC94EC706CF52C556C35AC1DEDEE2DC3B
:1043C000E6DAAA89AE843289368409C51C4D99E3A0
:1043D000EFF0BFB897170000938747BA639CF40CBF
:1043E00083A4490083D7C400A18BFDC79C48EDC7B7
:1043F00093070002A304F1029307000302D22305EE
:10440000F10222C6930B5002971A0000938A0ABB4E
:10441000054C294B4A848347040099C36391770F65
:10442000B30C2441638E0C00E6864A86A6854E8531
:10443000EFF09FF3FD576306F51E9256E69636D2CF
:1044400083470400638F071CFD571309140002C83B
:1044500002CE3ECA02CCA309010482D483450900DE
:1044600015465685B92713041900C24759E913F7B1
:10447000070109C713070002A309E10413F7870026
:1044800009C71307B002A309E10483460900130713
:10449000A0026380E608F2474A8481462546034726
:1044A000040093051400130707FD6379E60AB5CAF3
:1044B0003ECE85A897170000938747AE6395F4001A
:1044C00083A4890005B797170000938727A9E39B6A
:1044D000F4F083A4C90039B7A6854E85EFF06FF1DB
:1044E00001D97D55FA406A44DA444A49BA492A4A10
:1044F0009A4A0A4BF65B665CD65C0D6182800504C5
:1045000019BF330555413315AC00C98F3EC8228908
:10451000B1B7324793064700184336C663490702CE
:104520003ACE034704009307E002631FF7040347F2
:1045300014009307A002631BF702B2470904138714
:1045400047009C433AC663C107023ECA35A83307F9
:10455000E04093E727003ACE3EC8E1B7B387670350
:1045600085462E84BA9725BFFD57C5B7050402CAF4
:10457000814681472546034704009305140013072D
:1045800007FD6376E606F1F2834504000D46171534
:104590000000130525A3312D11CD97170000938737
:1045A00067A21D8D93070004B397A7004245050439
:1045B0005D8D2AC8834504001946171500001305B0
:1045C000A5A0130914002304B102E5233DC197C738
:1045D000FFFF938727A395E74247B247137707105A
:1045E00009CF91073EC69257D2973ED225B5B387E1
:1045F000670385462E84BA97BDBF9D07E19BA1073F
:10460000D5B7780097060000938646D626860C0814
:104610004E8597000000E7000000FD572A8AE3144A
:10462000F5FC83D7C40093F70704E39C07EA12550F
:1046300055BD780097060000938646D326860C0861
:104640004E85012AD9BF797156CA9C49BA8A9845C4
:1046500022D426D24ECE52CC06D64AD05AC85EC6F6
:10466000AA892E84B284368A63D3E700BA879CC0B5
:104670000347340419C385079CC01C4093F7070205
:1046800081C79C4089079CC00329040013796900F5
:10469000631A0900130B9401FD5B5C449840998FE9
:1046A000634CF9041C408346340493F70702B33685
:1046B000D000A5EB13063404D2854E85829AFD57AF
:1046C0006303F5041C4011469840998B544481447F
:1046D0006397C700B384E64063D3040081441C445D
:1046E00018486354F700998FBE94014969047D5BB3
:1046F00063982405014509A885465A86D2854E85CA
:10470000829A631E75017D55B2502254925402590B
:10471000F249624AD24A424BB24B45618280050956
:10472000ADBF3307D40013060003A301C70403473A
:10473000540493871600A2978906A381E7049DBFBE
:1047400085462286D2854E85829AE30E65FB050951
:1047500045B7797122D426D24AD04ECE06D652CC55
:1047600056CA5AC8B68983C685019307900632890E
:10477000AA842E8413863504638DF60263E2D7067D
:10478000930780056388F61863EDD70063810622DE
:1047900093073004638EF60A930A24042301D40499
:1047A000C9A0930730066385F60A93074006E39590
:1047B000F6FE1C40084393F6070893054500C5C65E
:1047C0001C410CC363D807001307D002B307F040A5
:1047D000A301E404970600009386867F29476DA80D
:1047E000930700076384F61663E5D7029307E00694
:1047F000638BF6189307F006E390F6FA0C401C431F
:1048000013F80508138547006307080608C39C438F
:104810008DA893075007E383F6FE93078007638B09
:10482000F61293073007E399F6F61C43D041814511
:104830009386470014C383AA070056859D2E01C5A1
:104840003305554148C05C401CC8A301040471A84D
:104850001C43930A2404938647009C4314C32301FA
:10486000F4048547D5B793F607041C410CC3B9DAA5
:10487000C207C18781BF93F5050408C3C9D983D78F
:1048800007001307F0066388E60E9706000093867C
:1048900026742947A30104044C400CC463C50500D9
:1048A00008406D9908C099E3B28A91CDB28AB3F5F8
:1048B000E702FD1AB69583C505002380BA00B3D57B
:1048C000E70263F0E70CA147631EF7001C40858BED
:1048D00091CB58401C4863C7E70093070003A38FA0
:1048E000FAFEFD1A3306564110C84E87CA8670007C
:1048F000A2852685EFF03FD57D5A631E450B7D5579
:10490000B250225492540259F249624AD24A424B5E
:1049100045618280A382D504970600009386466B8A
:104920000C40084313F805081C411105630D0802EB
:1049300008C313F7150001C793E505020CC04147F2
:10494000B1FB0C4093F5F5FD0CC0A9B79C4193E772
:1049500007029CC193078007A302F4049706000096
:104960009386466875BF13F8050408C3E30308FC83
:10497000C207C1837DBF9706000093866665214705
:1049800011BFAE872DB794411C43CC4913F80608DC
:10499000138547006306080008C39C438CC301A825
:1049A00008C393F606049C43F5DA2390B700232846
:1049B0000400B28A1DBF14485686CA85268582998E
:1049C000E30F45F31C40898B8DE7B2474844E35918
:1049D000F5F23E8535B785465686CA852685829985
:1049E000E30F65F1050A5C443247998FE345FAFE0F
:1049F000E9BF014A930A94017D5BF5B7411122C4D6
:104A00002A842E8523A4018A06C63D24FD576317F8
:104A1000F5009387818A9C4391C31CC0B240224415
:104A200041018280411122C42E848395E50006C68F
:104A30004522634905007C48AA977CC8B2402244BD
:104A4000410182808357C4007D777D17F98F23163B
:104A5000F400EDB783D7C500011122CC26CA4AC89D
:104A60004EC606CE93F70710AA842E843289B689E3
:104A700091C78395E5008946014631228357C400DA
:104A80007D777D17F98F2316F4008315E4006244C7
:104A9000F240CE864A86B24942492685D244056113
:104AA0003DA8411122C42E848395E50006C6E12865
:104AB000FD570357C400631BF500FD77FD17F98F01
:104AC0002316F400B2402244410182808567D98FC9
:104AD0002316F40068C8FDB78395E50005A84111C9
:104AE00022C42A842E85B285368623A4018A06C66E
:104AF000EFC0CFFBFD576317F5009387818A9C4376
:104B000091C31CC0B240224441018280411122C4A1
:104B10002A842E8523A4018A06C6CD20FD5763175B
:104B2000F5009387818A9C4391C31CC0B240224404
:104B300041018280411122C42A842E85B28523A49A
:104B4000018A06C6D120FD576317F5009387818A35
:104B50009C4391C31CC0B240224441018280411158
:104B600022C42A842E8523A4018A06C66520FD5707
:104B70006317F5009387818A9C4391C31CC0B240A0
:104B8000224441018280411122C42A842E85B285AB
:104B9000368623A4018A06C66120FD576317F500F7
:104BA0009387818A9C4391C31CC0B2402244410137
:104BB000828093F5F50F2A966314C5000145828023
:104BC00083470500E38DB7FE0505FDB7828082802F
:104BD000411122C42A842E85B285368623A4018AF7
:104BE00006C6A920FD576317F5009387818A9C4369
:104BF00091C31CC0B24022444101828093078005CA
:104C000023A4F18A7D5582809307800523A4F18A2D
:104C10007D5582809307800523A4F18A0145828017
:104C20009307800523A4F18A7D5582809307800530
:104C300023A4F18A7D558280938741889C4391C744
:104C40003E9523A2A1883E8582809387C18A3E95A6
:104C500023A2A1883E85828041313A37423A3139D8
:104C60003A32363A33423A33382C30303030303002
:104C7000000000004F4B0D0A000000000D0A00006C
:104C800041542B003D00000041542E2E2E00000008
:104C900041542B455849540041542B5245534554D7
:104CA0000000000041542B4D41433F0054504C0044
:104CB000424C454D4F44450041542B424C455354C2
:104CC000413F00004E414D4500000000504E414D17
:104CD000450000004F464600504153454E0000003D
:104CE0004F4E00005041535300000000434F4E4EC2
:104CF00000000000434F4E41444400004F4E2C3012
:104D0000000000005253534900000000433A2F5561
:104D1000736572732F59616E65722F4465736B747E
:104D20006F702F536D6172744361722F6C69627280
:104D300061726965732F7A665F6465766963652F52
:104D40007A665F6465766963655F626C7565746FCA
:104D50006F74685F6368393134312E63000000007E
:104D6000626C650030303030303000006861726451
:104D70006661756C742100000A426175642052619D
:104D80007465203D202564000A6461746142697481
:104D9000203D2025640000000A73746F704269741E
:104DA000203D2025640000000A7061726974795406
:104DB000797065203D202564000000000008014056
:104DC000000C014000100140001401400018014097
:104DD000003801400044004000480040004C0040C2
:104DE0000050004000180040001C0040002000401F
:104DF0001201000202000008861A22570001010277
:104E00000301000009024300020100A0320904006E
:104E10000001020201000524001001052401000028
:104E2000042402020524060001070581034000FF57
:104E300009040100020A0000000705020240000008
:104E400007058202400000001403320030003100E8
:104E500037002D0032002D00320035000E037700A0
:104E6000630068002E0063006E0000000C03430026
:104E700048003300300037001603300031003200A4
:104E800033003400350036003700380039000000A8
:104E90000A060002FF00FF40010000007E33000010
:104EA000D23000008C340000C83100008C34000087
:104EB00068300000AA2E00008C3400008C30000006
:104EC000B43000004233000062330000F22F0000D3
:104ED000DC2E0000EE2E0000022F0000F22F00005A
:104EE000F22F00009A2F0000AC2F0000F22F0000DC
:104EF000F22F0000F22F0000F22F0000F22F00002E
:104F0000F22F0000F22F0000EA2F0000F22F000025
:104F1000F22F0000F22F0000F22F0000F22F00000D
:104F2000F22F0000F22F0000F22F0000F22F0000FD
:104F3000F22F0000F22F0000F22F0000F22F0000ED
:104F4000F22F0000F22F0000F22F0000F22F0000DD
:104F5000F22F0000882F0000000000000000000079
:104F60000000000000000000000000000000000041
:104F70000000000000000000000000000000000031
:104F80000000000000000000000000000000000021
:104F90000000000000000000000000000000000011
:104FA0000000000000000000000000000000000001
:104FB0000000000000000000232D302B2000000026
:104FC000686C4C00656667454647000030313233F7
:104FD00034353637383941424344454600000000F5
:104FE000303132333435363738396162636465665F
:044FF00000000000BD
:104FF4000100000000C201001200000013000000C4
:105004008A00000001000000584C0000010000006C
:1050140000C2010012000000130000008A0000001A
:105024000600000000C201007400000075000000CA
:1050340088000000000000000102030401020304D0
:10504400060708090907000000000000000000002E
:10505400000000000000000000000000000000004C
:10506400000000000000000000000000000000003C
:10507400000000000000000000000000000000002C
:10508400000000000000000000000000784F000055
:10509400984F0000584F000000000000000000007E
:1050A40000000000000000000000000000000000FC
:1050B40000000000000000000000000000000000EC
:1050C40000000000000000000000000000000000DC
:1050D40000000000000000000000000000000000CC
:1050E40000000000000000000101000002040608A6
:1050F4000100000000C20100000008009800002028
:10510400353637444557585904030904980000209C
:00000001FF
