:100000006F60D07B1300000013000000130000009D
:100010001300000013000000130000001300000094
:100020001300000013000000130000001300000084
:08003000130000007300100032
:100038000000000000000000826A0000926A0000D0
:1000480000000000026F0000000000000000000037
:10005800046F0000066F00000000000000000000B0
:10006800086F0000000000000A6F00000000000098
:100078000C6F00000E6F0000106F0000126F000080
:10008800146F0000166F00009A6100000E620000F5
:1000980082620000F66200006A630000226F0000BE
:1000A800246F0000266F0000286F00002A6F0000F0
:1000B8002C6F00002E6F0000306F0000326F0000C0
:1000C800346F0000366F0000386F0000DE630000F8
:1000D8003C6F00009A650000406F0000426F00000E
:1000E8001A66000092660000126700004A6F00005E
:1000F8004C6F00004E6F0000506F0000526F000000
:10010800546F0000EA5C00006E5D0000F25D0000C4
:10011800B66400005E6F0000606F0000626F000050
:100128000A690000666F0000686F00006A6F0000CF
:100138006C6F00006E6F000092670000726F000025
:10014800765E0000FA5E0000126800008A6800000F
:100158007C6F00007E6F0000806F0000826F0000DF
:10016800846F0000866F0000886F00008A6F0000AF
:100178008C6F00008E6F0000906F0000D08E000022
:10018800946F0000966F00000A6100007C5F000019
:10019800006000008A600000A06F00008A6900000B
:1001A800A46F0000A66F0000A86F00000A6A000094
:1001B800AC6F0000AE6F0000B06F0000B26F0000BF
:1001C800B46F0000B66F0000B86F0000BA6F00008F
:1001D8000000000000000000000000000000000017
:1001E8000000000000000000000000000000000007
:0801F8000000000000000000FF
:100200003D432A876373C3029377F700BDEFADE5E3
:10021000937606FF3D8ABA960CC34CC30CC74CC7F5
:100220004107E36BD7FE11E28280B306C3408A0622
:100230009702000096966780A6002307B700A306E2
:10024000B7002306B700A305B7002305B700A30432
:10025000B7002304B700A303B7002303B700A3022A
:10026000B7002302B700A301B7002301B700A30022
:10027000B7002300B700828093F5F50F93968500B1
:10028000D58D93960501D58D61B79396270097027A
:10029000000096968682E78086FA9680C1171D8FA9
:1002A0003E96E374C3F8A5B7011122CE00102326B1
:1002B000A4FE2324B4FEB1A0B7F700E023A00700FA
:1002C000B7F700E0814501468CC7D0C7B7F700E01B
:1002D000054690C30100B7F700E003A8C7009C479C
:1002E0000326C4FEB2860147C2853A86636BB60018
:1002F000C2853A86E391C5FE3E86B68763E3C700B2
:10030000D9BF832784FE1386F7FF2324C4FECDF7CD
:100310000100724405618280011106CE22CC0010DA
:10032000AA8E2E8E32833685BA853E86C286468751
:10033000F687A307F4FEF2872307F4FE9A87A30645
:10034000F4FEAA872306F4FEAE87A305F4FEB28767
:100350002305F4FEB687A304F4FEBA872304F4FE53
:100360008347F4FE93068004014681453E85EF00F5
:1003700000778347E4FE93068004014681453E856D
:10038000EF00E0758347D4FE930680040146814563
:100390003E85EF00C0748347C4FE93068004014687
:1003A00081453E852D2F8347B4FE93068004014688
:1003B00081453E852D278347A4FE93068004014690
:1003C00081453E85292F834794FE9306800401468C
:1003D00081453E852927834784FE93068004014694
:1003E00081453E85ED2D83474400930680040146F8
:1003F00081453E85ED258347040093068004014630
:1004000081453E85E92D834784009306800401469B
:1004100081453E85E9250100F24062440561828004
:10042000011106CE22CC00102326A4FE2324B4FE04
:10043000B28736872313F4FEBA872312F4FE85456C
:100440000965EF70C057B707055083C7070013F75A
:10045000F70FB70705501377F7FC1377F70F2380D3
:10046000E700B707055083C7070013F7F70FB70773
:100470000550136727041377F70F2380E700B707AA
:10048000055083C7170013F7F70FB7070550659B93
:100490001377F70FA380E700B7070550035744FE13
:1004A0002392E700B7070550035764FE2393E70044
:1004B000B70705500327C4FE98C7B70705500327A1
:1004C00084FED8C7B707055083C7170013F7F70F87
:1004D000B70705501377F7031377F70FA380E700EB
:1004E00037070550B7070550034717001377F70F75
:1004F000A380E700B707055083C7270013F7F70F5E
:10050000B7070550136747001377F70F2381E700FC
:10051000B707055083C7170013F7F70FB707055044
:10052000136717001377F70FA380E700B70705508D
:1005300083C7070013F7F70FB707055013671700B6
:100540001377F70F2380E7008D4513056005EF5003
:10055000C06F13056005EF50806B0100F2406244EC
:1005600005618280797106D622D40018232EA4FC5E
:10057000231704FE231604FE0327C4FDA54763E0EA
:10058000E70C8327C4FD13972700C9679387C7D05B
:10059000BA979C438287B7370140938707C083D7B8
:1005A0004702C207C1832317F4FE69A8B7070040BA
:1005B00083D74702C207C1832317F4FE61A0B707A0
:1005C00000409387074083D74702C207C1832317A0
:1005D000F4FE8DA8B71700409387078083D74702A2
:1005E000C207C1832317F4FEB1A8B7170040938751
:1005F00007C083D74702C207C1832317F4FE99A01F
:10060000B73701409387074083D74702C207C183AA
:100610002317F4FE05A8B7570140938707C083D777
:100620004702C207C1832317F4FE29A8B757014028
:1006300083D74702C207C1832317F4FE21A02317E3
:1006400004FE0100B7070020138707008327C4FDBD
:10065000BA9783C7070013F7F70F9307F00F6317D5
:10066000F7008357E4FE2316F4FE05A8B707002021
:10067000138707008327C4FDBA9783C7070093F742
:10068000F70F3E857D26AA8789EB8357E4FEB307E3
:10069000F040C207C1832316F4FE8317C4FE3E85D3
:1006A000B250225445618280011122CE00102326CF
:1006B000A4FE0327C4FEA54763E0E7088327C4FE22
:1006C00013972700C967938747D3BA979C438287BC
:1006D000B7370140938707C023920702B9A8B7072D
:1006E00000402392070291A8B70700409387074074
:1006F0002392070299A0B71700409387078023929F
:10070000070225A8B7170040938707C02392070266
:100710002DA0B7370140938707402392070231A8E5
:10072000B7570140938707C02392070239A0B757F4
:1007300001402392070211A00100010072440561EB
:100740008280397106DE22DC80002326A4FC23246B
:10075000B4FC2322C4FC232604FE91450325C4FCDB
:10076000EF10106EAA873E871306C007C5679385F2
:1007700087743A85EF40D006832784FCB183032732
:10078000C4FCB307F74093B7170093F7F70F3E8702
:100790001306D007C567938587743A85EF405004E8
:1007A000832744FCB1830327C4FCB307F74093B706
:1007B000170093F7F70F3E871306E007C567938589
:1007C00087743A85EF40D0010325C4FCEF10B06D6B
:1007D000832784FC93F7F70F930680040146814535
:1007E0003E85F52C832744FC93F7F70F930680048E
:1007F000014681453E85E524832784FC13F7F70FE6
:10080000B7070020938607008327C4FCB697238090
:10081000E7000327C4FCA54763E0E7088327C4FC7F
:1008200013972700C9679387C7D5BA979C438287D8
:10083000B7370140938707C02324F4FE8DA0B70784
:1008400000402324F4FEA1A8B70700409387074087
:100850002324F4FEA9A0B717004093870780232420
:10086000F4FE35A8B7170040938707C02324F4FE91
:100870003DA0B7370140938707402324F4FE05A02D
:10088000B7570140938707C02324F4FE09A8B75740
:1008900001402324F4FE21A085472326F4FE83276C
:1008A00084FC13D787008D47631AF7008545B70787
:1008B00016001385070CEF60903DE5A8832784FCA4
:1008C00013D78700C547631AF7008545B707180097
:1008D00013850710EF60B03BE9A8832784FC13D78A
:1008E000870093072002631AF7008545B7171A009F
:1008F00013850780EF60B0396DA8832784FC13D778
:10090000870093073002631AF7008545B7171A006E
:10091000138507C0EF60B03769A8832784FC13D71D
:100920008700930710036317F70085450565EF609F
:10093000103641A0832784FC13D787009307100744
:10094000631AF7008545B707008013854700EF60FD
:10095000103485A0832784FC13D7870093073008C1
:10096000631AF7008545B707138013850701EF6009
:10097000103281A0832784FC13D7870093071009C6
:10098000631AF7008545B707158013850702EF60E6
:10099000103005A0832784FC13D787009307300904
:1009A0006319F7008545B707158013850704EF60C5
:1009B000102E8327C4FEADEB85450545EF708004FE
:1009C000232E04FC232004FE231204FE9307C4FDFF
:1009D0003E85EF70D010231E04FCFD572310F4FE5B
:1009E000231104FE231F04FC230204FE9307C4FD0D
:1009F000BE85032584FEEF70A0099305000603253C
:100A000084FEEF70101D8545032584FEEF70F01005
:100A1000814601468945032584FEEF70D024854533
:100A2000032584FEEF70700F0100F25062542161C3
:100A30008280011122CE00102326A4FE8327C4FE4B
:100A4000958313F77700B70700200A079387C7003D
:100A5000BA979C439C470327C4FE7D8B85463397FA
:100A6000E600F98FB337F00093F7F70F3E85724435
:100A700005618280797122D60018232EA4FC832779
:100A8000C4FD958393F7F70F9D8BA307F4FE83278F
:100A9000C4FD93F7F70FFD8B2307F4FE0347F4FE25
:100AA000B70700200A079387C700BA979C43D84727
:100AB0008347E4FE8546B397F600C207C1833E86AE
:100AC0008346F4FEB70700208A069387C700B697CF
:100AD0009C43318FD8C701003254456182807971BF
:100AE00006D622D40018232EA4FC232CB4FCB287F3
:100AF0002328D4FCA30BF4FC232004FE232204FEB1
:100B0000232404FE8327C4FD958393F7F70F9D8B61
:100B1000A307F4FE8327C4FD93F7F70FFD8B23078C
:100B2000F4FE8347F4FE91E785451145EF60906D33
:100B300091A80347F4FE85476317F70085452145D3
:100B4000EF60506C81A00347F4FE89476317F700FC
:100B500085454145EF60106B35A00347F4FE8D4796
:100B60006318F700854513050002EF60B06919A806
:100B70000347F4FE91476317F7008545130500040A
:100B8000EF6050688347E4FE0547B317F700C207DC
:100B9000C1832310F4FE032784FD85476317F70202
:100BA000832704FDC207C183A183C207C18389E7EC
:100BB0008D472322F4FE11A8832704FDC207C183B9
:100BC000A183C207C1832322F4FE832704FDC20749
:100BD000C18393F7F70F2324F4FE0347F4FEB7070E
:100BE00000200A079387C700BA979C43130704FEA7
:100BF000BA853E85EF608063032784FD85476319CE
:100C0000F7020347F4FEB70700200A079387C700DF
:100C1000BA9794438347E4FE0547B317F700C2072A
:100C2000C183034774FD3A86BE853685EF60B00206
:100C30000100B250225445618280797106D622D4D7
:100C40000018232EA4FC232CB4FC032784FD896701
:100C500093871771B337F70093F7F70F3E871306A3
:100C60005003C5679385077C3A85EF406037B737F7
:100C70000140938707C02326F4FE8327C4FDC18368
:100C8000BD8B2547636EF70613972700C9679387C7
:100C900047D8BA979C438287B7370140938707C0EC
:100CA0002326F4FEB1A8B70700402326F4FE89A846
:100CB000B7070040938707402326F4FE91A0B7179B
:100CC0000040938707802326F4FE1DA8B717004035
:100CD000938707C02326F4FE25A0B73701409387EA
:100CE00007402326F4FE29A8B7570140938707C081
:100CF0002326F4FE31A0B75701402326F4FE01005D
:100D00008327C4FE83D7C7022315F4FE0357A4FE2E
:100D1000832784FD3307F702896793870771B357E9
:100D2000F7022314F4FE8327C4FDA1838D8B81EB8E
:100D30008327C4FE035784FE239AE702A9A88327CA
:100D4000C4FDA18313F7370085476319F700832794
:100D5000C4FE035784FE239CE70235A88327C4FD05
:100D6000A18313F7370089476319F7008327C4FE6F
:100D7000035784FE239EE70239A88327C4FDA1837D
:100D800013F737008D476318F7008327C4FE035716
:100D900084FE2390E7040100B25022544561828012
:100DA0005D7186C6A2C48008232EA4FA232CB4FA4F
:100DB000232AC4FA8327C4FBC1838D453E85EF10E7
:100DC0003008AA873E871306D00AC5679385077C3B
:100DD0003A85EF40E020032744FB8967938717712A
:100DE000B337F70093F7F70F3E871306F00AC5678E
:100DF0009385077C3A85EF40A01E232E04FC232018
:100E000004FE231204FE232604FC232804FC232AC8
:100E100004FC232C04FC231504FE8327C4FBC1839C
:100E2000BD8B3E85EF1030088327C4FB93F7F70F87
:100E300093068031014685453E85553185450545FA
:100E4000EF60503CB7370140938707C02326F4FE7C
:100E50008327C4FBC183BD8B2547636EF7061397B9
:100E60002700C9679387C7DABA979C438287B73749
:100E70000140938707C02326F4FEB1A8B7070040BE
:100E80002326F4FE89A8B70700409387074023264E
:100E9000F4FE91A0B7170040938707802326F4FE45
:100EA0001DA8B7170040938707C02326F4FE25A08E
:100EB000B7370140938707402326F4FE29A8B75788
:100EC0000140938707C02326F4FE31A0B7570140A5
:100ED0002326F4FE01008327C4FB13D7C7008D47E8
:100EE000631AF7008545B70716001385070CEF60F6
:100EF000005A15AA8327C4FB13D7C700C547631A36
:100F0000F7008545B707180013850710EF602058D4
:100F100019AA8327C4FB13D7C700C947631AF70070
:100F20008545B707180013850720EF604056E5A8F0
:100F30008327C4FB13D7C700CD47631AF700854545
:100F4000B707180013850730EF606054E9A88327BE
:100F5000C4FB13D7C70093072002631AF700854527
:100F6000B7171A0013850780EF6060526DA88327BA
:100F7000C4FB13D7C70093073002631AF7008545F7
:100F8000B7171A00138507C0EF60605069A8832760
:100F9000C4FB13D7C700930710036317F7008545F9
:100FA0000565EF60C04E41A08327C4FB13D7C7007F
:100FB00093071007631AF7008545B707008013856C
:100FC0004700EF60C04C85A08327C4FB13D7C70040
:100FD00093073008631AF7008545B7071380138518
:100FE0000701EF60C04A81A08327C4FB13D7C70065
:100FF00093071009631AF7008545B7071580138515
:101000000702EF60C04805A08327C4FB13D7C700C1
:10101000930730096319F7008545B70715801385D5
:101020000704EF60C04603A78181832784FBB35781
:10103000F702C1832315F4FE03A781818357A4FE21
:101040008507BE86832784FBB387F602B357F70272
:101050002314F4FE035784FE832744FB3307F7026F
:10106000896793870771B357F7022313F4FE8357F9
:1010700084FEFD17C207C1832310F4FE8357A4FE2C
:10108000231EF4FC231104FE231F04FC230204FE90
:101090009307C4FDBE850325C4FEEF60701F930750
:1010A00000072316F4FC85472317F4FC231804FCDF
:1010B000835764FE2319F4FC8947231AF4FC8947FB
:1010C000231BF4FC231C04FC231D04FC8327C4FB0A
:1010D000A1838D8B9DE39307C4FCBE850325C4FECD
:1010E000EF60F032A1450325C4FEEF704045914505
:1010F0000325C4FEEF70605945A08327C4FBA1837C
:1011000013F7370085476315F7029307C4FCBE85C4
:101110000325C4FEEF607049A1450325C4FEEF70AE
:10112000C046930500400325C4FEEF70C05AADA031
:101130008327C4FBA18313F7370089476314F702A1
:101140009307C4FCBE850325C4FEEF603064A1454F
:101150000325C4FEEF70004991450325C4FEEF70DE
:10116000E05C1DA88327C4FBA18313F737008D47DC
:101170006314F7029307C4FCBE850325C4FEEF6029
:10118000B07EA1450325C4FEEF70804A9305004060
:101190000325C4FEEF70405E85450325C4FEEF7055
:1011A000401D85450325C4FEEF7020170100B640A1
:1011B000264461618280797106D622D40018232EDC
:1011C000A4FC8327C4FDB337F00093F7F70F3E87E5
:1011D00013061004C967938547833A85EF30506042
:1011E0008327C4FD9C43BD8B0547B317F700939637
:1011F0000701C1828327C4FD9C4313D75700B7075B
:1012000000200A079387C700BA979C43368798CB7C
:101210008327C4FDDC43BD8B0547B317F7009396C6
:101220000701C1828327C4FDDC4313D75700B707EA
:1012300000200A079387C700BA979C43368798CB4C
:101240008327C4FDDC472326F4FE01008327C4FE68
:101250001387F7FF2326E4FEF5FB8327C4FDDC4359
:10126000BD8B0547B317F70093960701C18283270B
:10127000C4FDDC4313D75700B70700200A07938744
:10128000C700BA979C433687D8CB8327C4FDDC4779
:101290002324F4FE0100832784FE1387F7FF232411
:1012A000E4FEF5FB8327C4FD9C43BD8B0547B317C4
:1012B000F70093960701C1828327C4FD9C4313D78F
:1012C0005700B70700200A079387C700BA979C43C7
:1012D0003687D8CB0100B2502254456182807971A3
:1012E00006D622D40018232EA4FC8327C4FDB337CE
:1012F000F00093F7F70F3E8713064005C967938503
:1013000047833A85EF30D04D8327C4FDDC43BD8B46
:101310000547B317F70093960701C1828327C4FDE1
:10132000DC4313D75700B70700200A079387C7008D
:10133000BA979C433687D8CB8327C4FD9C43BD8B8B
:101340000547B317F70093960701C1828327C4FDB1
:101350009C4313D75700B70700200A079387C7009D
:10136000BA979C433687D8CB8327C4FDDC47232616
:10137000F4FE01008327C4FE1387F7FF2326E4FE53
:10138000F5FB8327C4FD9C43BD8B0547B317F700CE
:1013900093960701C1828327C4FD9C4313D757004E
:1013A000B70700200A079387C700BA979C43368780
:1013B00098CB8327C4FDDC472324F4FE0100832758
:1013C00084FE1387F7FF2324E4FEF5FB8327C4FD87
:1013D000DC43BD8B0547B317F70093960701C18225
:1013E0008327C4FDDC4313D75700B70700200A0743
:1013F0009387C700BA979C43368798CB8327C4FD51
:10140000DC472322F4FE0100832744FE1387F7FF05
:101410002322E4FEF5FB0100B25022544561828094
:10142000797106D622D40018232EA4FCAE87A30D12
:10143000F4FC8327C4FDB337F00093F7F70F3E8722
:1014400013069006C967938547833A85EF30503974
:101450008327C4FD9C43BD8B0547B317F7009396C4
:101460000701C1828327C4FD9C4313D75700B707E8
:1014700000200A079387C700BA979C433687D8CBCA
:101480008347B4FD95CB8327C4FDDC43BD8B054763
:10149000B317F70093960701C1828327C4FDDC438D
:1014A00013D75700B70700200A079387C700BA97DA
:1014B0009C43368798CB0DA88327C4FDDC43BD8BA6
:1014C0000547B317F70093960701C1828327C4FD30
:1014D000DC4313D75700B70700200A079387C700DC
:1014E000BA979C433687D8CB8327C4FDDC47232695
:1014F000F4FE01008327C4FE1387F7FF2326E4FED2
:10150000F5FB8327C4FD9C43BD8B0547B317F7004C
:1015100093960701C1828327C4FD9C4313D75700CC
:10152000B70700200A079387C700BA979C433687FE
:1015300098CB8327C4FDDC472324F4FE01008327D6
:1015400084FE1387F7FF2324E4FEF5FB8327C4FD05
:101550009C43BD8B0547B317F70093960701C182E3
:101560008327C4FD9C4313D75700B70700200A0701
:101570009387C700BA979C433687D8CB8327C4FD8F
:10158000DC43BD8B0547B317F70093960701C18273
:101590008327C4FDDC4313D75700B70700200A0791
:1015A0009387C700BA979C43368798CB0100B25007
:1015B000225445618280797106D622D40018232EE8
:1015C000A4FC8327C4FDB337F00093F7F70F3E87E1
:1015D00013065008C967938547833A85EF3050203A
:1015E000A30704FE8327C4FD9C43BD8B0547B317A7
:1015F000F70093960701C1828327C4FD9C4313D74C
:101600005700B70700200A079387C700BA979C4383
:101610003687D8CB8327C4FDDC43BD8B0547B31782
:10162000F70093960701C1828327C4FDDC4313D7DB
:101630005700B70700200A079387C700BA979C4353
:10164000368798CB8327C4FDDC472324F4FE0100B2
:10165000832784FE1387F7FF2324E4FEF5FB83270B
:10166000C4FD9C43BD8B0547B317F7009396070154
:10167000C1828327C4FD9C4313D75700B7070020BE
:101680000A079387C700BA979C43368798CB83276E
:10169000C4FDDC472322F4FE0100832744FE1387A8
:1016A000F7FF2322E4FEF5FB8327C4FDDC433E85E0
:1016B000EFF02FB8AA8781C78547A307F4FE8327D9
:1016C000C4FD9C43BD8B0547B317F70093960701F4
:1016D000C1828327C4FD9C4313D75700B70700205E
:1016E0000A079387C700BA979C433687D8CB8327CE
:1016F000C4FDDC472320F4FE0100832704FE13878A
:10170000F7FF2320E4FEF5FB8347F4FE3E85B2504D
:10171000225445618280797106D622D40018232E86
:10172000A4FCAE87A30DF4FC8327C4FDB337F000FF
:1017300093F7F70F3E871306700AC96793854783AF
:101740003A85EF30F009930700F8A307F4FE09AAE1
:101750000347B4FD8347F4FEF98F93F7F70F95CB5A
:101760008327C4FDDC43BD8B0547B317F700939671
:101770000701C1828327C4FDDC4313D75700B70795
:1017800000200A079387C700BA979C43368798CBF7
:101790000DA88327C4FDDC43BD8B0547B317F700B5
:1017A00093960701C1828327C4FDDC4313D75700FA
:1017B000B70700200A079387C700BA979C4336876C
:1017C000D8CB8347F4FE8583A307F4FE8327C4FDAB
:1017D000DC472324F4FE0100832784FE1387F7FFF0
:1017E0002324E4FEF5FB8327C4FD9C43BD8B054702
:1017F000B317F70093960701C1828327C4FD9C436A
:1018000013D75700B70700200A079387C700BA9776
:101810009C43368798CB8327C4FDDC472322F4FE04
:101820000100832744FE1387F7FF2322E4FEF5FB24
:101830008327C4FD9C43BD8B0547B317F7009396E0
:101840000701C1828327C4FD9C4313D75700B70704
:1018500000200A079387C700BA979C433687D8CBE6
:101860008347F4FEE39607EE0325C4FDA933AA8758
:10187000FD17B337F00093F7F70F3E85B2502254AF
:1018800045618280397106DE22DC26DA800023265B
:10189000A4FCAE87A305F4FC8327C4FCB337F00097
:1018A00093F7F70F3E871306000CC96793854783AC
:1018B0003A85EF30E072A30704FEA1472307F4FE48
:1018C0008327C4FC9C43BD8B0547B317F700939651
:1018D0000701C1828327C4FC9C4313D75700B70775
:1018E00000200A079387C700BA979C433687D8CB56
:1018F0008327C4FCDC472324F4FE0100832784FEF5
:101900001387F7FF2324E4FEF5FB8327C4FCDC43A5
:10191000BD8B0547B317F70093960701C182832754
:10192000C4FCDC4313D75700B70700200A0793878E
:10193000C700BA979C43368798CB7DA88327C4FC01
:101940009C43BD8B0547B317F70093960701C182EF
:101950008327C4FC9C4313D75700B70700200A070E
:101960009387C700BA979C433687D8CB8327C4FC9C
:10197000DC472322F4FE0100832744FE1387F7FF90
:101980002322E4FEF5FB8327C4FC9C43BD8B054763
:10199000B317F70093960701C1828327C4FC9C43C9
:1019A00013D75700B70700200A079387C700BA97D5
:1019B0009C43368798CB8327C4FCDC472320F4FE66
:1019C0000100832704FE1387F7FF2320E4FEF5FBC5
:1019D0008347F4FE860793948701E1848327C4FC40
:1019E000DC433E85EFF0EF84AA87E207E187C58FED
:1019F000E207E187A307F4FE8347E4FE1387F7FFBE
:101A00002307E4FE85FF8327C4FC9C43BD8B054769
:101A1000B317F70093960701C1828327C4FC9C4348
:101A200013D75700B70700200A079387C700BA9754
:101A30009C433687D8CB8327C4FCDC47232EF4FC99
:101A400001008327C4FD1387F7FF232EE4FCF5FB79
:101A50008347B4FCBE850325C4FCD9328347F4FE1A
:101A60003E85F2506254D25421618280011106CE2B
:101A700022CC00102326A4FEAE873287A305F4FEF5
:101A8000BA872305F4FE8327C4FEB337F00093F72B
:101A9000F70F3E871306B028C967938547833A85B9
:101AA000EF3000540325C4FEEFF0EFF08327C4FEAF
:101AB00083C78700860793F7F70FBE850325C4FE0B
:101AC00099398347B4FEBE850325C4FEA9318347F7
:101AD000A4FEBE850325C4FE3D390325C4FEEFF0F8
:101AE0001F800100F240624405618280797106D650
:101AF00022D40018232EA4FCAE87A30DF4FC832768
:101B0000C4FDB337F00093F7F70F3E871306D029D3
:101B1000C967938547833A85EF30804CA30704FE5D
:101B20000325C4FDEFF02FE98327C4FD83C7870099
:101B3000860793F7F70FBE850325C4FDE93E83476B
:101B4000B4FDBE850325C4FDF9360325C4FDEFF0C1
:101B50000FF90325C4FDEFF00FE68327C4FD83C70B
:101B600087008607E207E18793E71700E207E1872E
:101B700093F7F70FBE850325C4FD713E8545032508
:101B8000C4FD0933AA87A307F4FE0325C4FDEFF0C3
:101B90000FF58347F4FE3E85B250225445618280A2
:101BA000797106D622D400182326A4FEAE872322FC
:101BB000C4FE2320D4FE232EE4FCA305F4FE8327D9
:101BC000C4FEB337F00093F7F70F3E871306802B60
:101BD000C967938547833A85EF308040032704FE29
:101BE0008327C4FDB307F740B337F00093F7F70F2F
:101BF0003E871306902BC967938547833A85EF305C
:101C0000203E8327C4FE032704FE98C38327C4FE17
:101C10000327C4FDD8C38327C4FE0347B4FE23842F
:101C2000E7008327C4FE032744FED8C7C146054604
:101C30008545032504FEEFE09FEAD146054685452C
:101C40000325C4FDEFE0BFE90100B2502254456115
:101C50008280397106DE22DC80002326A4FCAE8758
:101C6000A305F4FCA30704FE8347B4FC2307F4FE9A
:101C7000A30604FE8327C4FC83C7070093F707F875
:101C800093F7F70F8DCB8327C4FC9C4BBD8B054787
:101C9000B317F70093960701C1828327C4FC9C4BBE
:101CA00013D75700B70700200A079387C700BA97D2
:101CB0009C433687D8CB8327C4FC83C7070093F7A0
:101CC000F70393F7F70F81CF8327C4FC83C707007F
:101CD00093F7F70313F7F70F8547631BF702832783
:101CE000C4FCDC43BD8B0547B317F700939607018F
:101CF000C1828327C4FCDC4313D75700B7070020F9
:101D00000A079387C700BA979C433687D8CB0DA89C
:101D10008327C4FCDC43BD8B0547B317F7009396BC
:101D20000701C1828327C4FCDC4313D75700B707E0
:101D300000200A079387C700BA979C43368798CB41
:101D40008327C4FC9C4393F7F70393F7F70F858B26
:101D5000639B0710A147A307F4FE09A28307E4FED3
:101D600063DB07028327C4FC9C47BD8B0547B31781
:101D7000F70093960701C1828327C4FC9C4713D7C1
:101D80005700B70700200A079387C700BA979C43FC
:101D9000368798CB0DA88327C4FC9C47BD8B05478D
:101DA000B317F70093960701C1828327C4FC9C47B1
:101DB00013D75700B70700200A079387C700BA97C1
:101DC0009C433687D8CB8327C4FCDC4B2324F4FE0A
:101DD0000100832784FE1387F7FF2324E4FEF5FB2D
:101DE0008327C4FCDC433E85EFE0DFC88347E4FE85
:101DF00086072307F4FE8347D4FE8607A306F4FE76
:101E00008327C4FC83C7070093F7070493F7F70FF2
:101E100091CF8327C4FCDC473E85EFE09FC1AA87B2
:101E20003E878347D4FED98FA306F4FE8327C4FCE4
:101E3000DC4B2322F4FE0100832744FE1387F7FFC7
:101E40002322E4FEF5FB8327C4FCDC433E85EFE060
:101E50007FC28347F4FEFD17A307F4FE8347F4FE19
:101E6000E39E07EE09AAA147A307F4FE09A2832770
:101E7000C4FCDC433E85EFE0FFBF8307E4FE63DB89
:101E800007028327C4FC9C47BD8B0547B317F700A7
:101E900093960701C1828327C4FC9C4713D7570040
:101EA000B70700200A079387C700BA979C43368775
:101EB00098CB0DA88327C4FC9C47BD8B0547B3175F
:101EC000F70093960701C1828327C4FC9C4713D770
:101ED0005700B70700200A079387C700BA979C43AB
:101EE0003687D8CB8327C4FCDC4B2320F4FE0100CB
:101EF000832704FE1387F7FF2320E4FEF5FB8327E7
:101F0000C4FCDC433E85EFE0FFB68347E4FE860772
:101F10002307F4FE8347D4FE8607A306F4FE832737
:101F2000C4FC83C7070093F7070493F7F70F91CF1B
:101F30008327C4FCDC473E85EFE0BFAFAA873E871E
:101F40008347D4FED98FA306F4FE8327C4FCDC4B61
:101F5000232EF4FC01008327C4FD1387F7FF232EF3
:101F6000E4FCF5FB8347F4FEFD17A307F4FE83476B
:101F7000F4FEE39E07EE8327C4FC83C7070093F7B4
:101F800007F893F7F70F8DCB8327C4FC9C4BBD8BD1
:101F90000547B317F70093960701C1828327C4FC56
:101FA0009C4B13D75700B70700200A079387C70039
:101FB000BA979C43368798CB8347D4FE3E85F25030
:101FC000625421618280397106DE22DC8000232682
:101FD000A4FCAE872315F4FCA30704FE8357A4FCDE
:101FE0002316F4FE231504FE8327C4FC83C70700D1
:101FF00093F707F893F7F70F8DCB8327C4FC9C4B1F
:10200000BD8B0547B317F70093960701C18283275D
:10201000C4FC9C4B13D75700B70700200A079387CF
:10202000C700BA979C433687D8CB8327C4FC83C7A5
:10203000070093F7F70393F7F70F81CF8327C4FCCB
:1020400083C7070093F7F70313F7F70F8547631B61
:10205000F7028327C4FCDC43BD8B0547B317F700A9
:1020600093960701C1828327C4FCDC4313D7570032
:10207000B70700200A079387C700BA979C433687A3
:10208000D8CB0DA88327C4FCDC43BD8B0547B31711
:10209000F70093960701C1828327C4FCDC4313D762
:1020A0005700B70700200A079387C700BA979C43D9
:1020B000368798CB8327C4FC9C4393F7F70393F7A9
:1020C000F70F858B639D0710C147A307F4FE19A284
:1020D0008317C4FE63DB07028327C4FC9C47BD8BC8
:1020E0000547B317F70093960701C1828327C4FC05
:1020F0009C4713D75700B70700200A079387C700EC
:10210000BA979C43368798CB0DA88327C4FC9C477D
:10211000BD8B0547B317F70093960701C18283274C
:10212000C4FC9C4713D75700B70700200A079387C2
:10213000C700BA979C433687D8CB8327C4FCDC4BB7
:102140002322F4FE0100832744FE1387F7FF232296
:10215000E4FEF5FB8327C4FCDC433E85EFE09F9162
:102160008357C4FE86072316F4FE8357A4FE860712
:102170002315F4FE8327C4FC83C7070093F70704E5
:1021800093F7F70F85C38327C4FCDC473E85EFE058
:102190005F8AAA871397070141838357A4FED98FCB
:1021A0002315F4FE8327C4FCDC4B2320F4FE01003E
:1021B000832704FE1387F7FF2320E4FEF5FB832724
:1021C000C4FCDC433E85EFE0FF8A8347F4FEFD1745
:1021D000A307F4FE8347F4FEE39C07EE19AAC14768
:1021E000A307F4FE19A28327C4FCDC433E85EFE07D
:1021F0007F888317C4FE63DB07028327C4FC9C47E8
:10220000BD8B0547B317F70093960701C18283275B
:10221000C4FC9C4713D75700B70700200A079387D1
:10222000C700BA979C43368798CB0DA88327C4FC78
:102230009C47BD8B0547B317F70093960701C182F2
:102240008327C4FC9C4713D75700B70700200A0711
:102250009387C700BA979C433687D8CB8327C4FCA3
:10226000DC4B232EF4FC01008327C4FD1387F7FF0A
:10227000232EE4FCF5FB8327C4FCDC433E85EFE022
:102280006FFF8357C4FE86072316F4FE8357A4FE10
:1022900086072315F4FE8327C4FC83C7070093F742
:1022A000070493F7F70F85C38327C4FCDC473E85FB
:1022B000EFE02FF8AA871397070141838357A4FE05
:1022C000D98F2315F4FE8327C4FCDC4B232CF4FCAC
:1022D0000100832784FD1387F7FF232CE4FCF5FB23
:1022E0008347F4FEFD17A307F4FE8347F4FEE39C47
:1022F00007EE8327C4FC83C7070093F707F893F71B
:10230000F70F8DCB8327C4FC9C4BBD8B0547B317C0
:10231000F70093960701C1828327C4FC9C4B13D717
:102320005700B70700200A079387C700BA979C4356
:10233000368798CB8357A4FE3E85F25062542161C4
:102340008280011106CE22CC00102326A4FEAE8787
:10235000A305F4FE8327C4FEB337F00093F7F70F0D
:102360003E871306800EC9679385C78A3A85EF209A
:1023700030478347B4FEBE850325C4FEEFF07F8D52
:102380000100F240624405618280011106CE22CC38
:1023900000102326A4FEAE872315F4FE8327C4FE77
:1023A000B337F00093F7F70F3E8713069010C96715
:1023B0009385C78A3A85EF20B0428357A4FEBE8535
:1023C0000325C4FE09310100F240624405618280A8
:1023D000797106D622D400182326A4FE2322C4FE37
:1023E0002320D4FE232EE4FC232CF4FC232A04FD1A
:1023F000AE87A305F4FE8327C4FEB337F00093F73E
:10240000F70F3E8713060024C9679385C78A3A856C
:10241000EF20103D032704FE8327C4FDB307F740D8
:10242000B337F00093F7F70F3E8713061024C96700
:102430009385C78A3A85EF20B03A032704FE8327A5
:1024400084FDB307F740B337F00093F7F70F3E87EB
:1024500013062024C9679385C78A3A85EF20503830
:10246000032704FE832744FDB307F740B337F0008A
:1024700093F7F70F3E8713063024C9679385C78A01
:102480003A85EF20F0350327C4FD832784FDB30789
:10249000F740B337F00093F7F70F3E871306402459
:1024A000C9679385C78A3A85EF2090330327C4FD17
:1024B000832744FDB307F740B337F00093F7F70FD6
:1024C0003E8713065024C9679385C78A3A85EF2053
:1024D0003031032784FD832744FD6318F700032769
:1024E00044FDC167FD176314F700854711A08147BC
:1024F00013F7F70F13066024C9679385C78A3A85D7
:10250000EF20102E8347B4FE93B7470093F7F70FE1
:102510003E8713068024C9679385C78A3A85EF20D2
:10252000302C8347B4FE93F7F70313F7F70F832795
:10253000C4FE1376F70303C70700137707FCBA86B8
:102540003287558F2380E7008327C4FE032744FE8C
:10255000D8CB8327C4FE032704FED8C38327C4FE39
:102560000327C4FD98C78347B4FE91C70347B4FE51
:102570008547631AF700C14601468545032504FED9
:10258000EFE0EFD501A8C14605468545032504FEC9
:10259000EFE0EFD4C146054685450325C4FDEFE0D5
:1025A0000FD4032784FDC167FD17631BF700832742
:1025B000C4FE03C707001377F7FB2380E7003DA0A5
:1025C0008327C4FE03C70700136707042380E700BF
:1025D0008327C4FE032784FDD8C78327C4FEDC47B6
:1025E0009146054681453E85EFE06FCF032744FDC8
:1025F000C167FD17631BF7008327C4FE03C70700ED
:102600001377F7072380E7003DA08327C4FE03C7A5
:102610000700136707F82380E7008327C4FE03271A
:1026200044FD98CB8327C4FE9C4BC1460546854597
:102630003E85EFE0CFCA0100B2502254456182804E
:10264000797122D60018232EA4FC232CB4FC8547D4
:10265000A307F4FE0327C4FD0A079387C18ABA972C
:102660009C4399EB0327C4FD0A079387C18ABA9755
:10267000032784FD98C315A00327C4FD0A07938789
:10268000C18ABA979C43032784FD6316F7008547E8
:10269000A307F4FE19A0A30704FE8347F4FE3E85BA
:1026A000325445618280011106CE22CC00102326CF
:1026B000A4FE8327C4FE81EB8545856713850780CB
:1026C000EF5040346DA80327C4FE85476317F70019
:1026D00085450545EF5060375DA00327C4FE894757
:1026E0006317F70085450945EF50203649A80327B1
:1026F000C4FE8D476317F70085451145EF50E03460
:10270000BDA80327C4FE91476317F70085452145FF
:10271000EF50A033ADA00327C4FE95476317F70021
:1027200085454145EF50603299A80327C4FE99477B
:102730006318F700854513050002EF50003181A0B2
:102740000327C4FE9D476317F70085450965EF50D1
:10275000602B35A00327C4FEA1476318F700854509
:1027600037050800EF50002A19A80327C4FEA54723
:102770006317F700854537051000EF50A0280100CA
:10278000F240624405618280011122CE00102326AE
:10279000A4FEAE87A305F4FE0100C9670327C4FEAB
:1027A0000A07938747DDBA979C4383D70700C20780
:1027B000C18393F70708F5D3C9670327C4FE0A0747
:1027C000938747DDBA979C433E878347B4FEC20791
:1027D000C1832312F7000100724405618280011158
:1027E00006CE22CC00102326A4FE2324B4FE2322EE
:1027F000C4FE832784FEB337F00093F7F70F3E87BC
:1028000013061004C967938547923A85EF20407DEF
:1028100029A8832784FE138717002324E4FE83C797
:102820000700BE850325C4FE8537832744FE138732
:10283000F7FF2322E4FEF1FF0100F240624405614C
:102840008280011106CE22CC00102326A4FE232470
:10285000B4FE832784FEB337F00093F7F70F3E876B
:1028600013060005C967938547923A85EF204077A4
:1028700039A8832784FE138717002324E4FE838767
:10288000070093F7F70FBE850325C4FEF53D8327A8
:1028900084FE83870700F1FF0100F2406244056176
:1028A0008280011106CE22CC00102326A4FEAE8722
:1028B000A305F4FEC9670327C4FE0A07938747DD13
:1028C000BA979C433E878347B4FE3E869305505299
:1028D0003A85EF60E022138781838327C4FEBA978D
:1028E00083C7070081453E85EF3020368347B4FE1D
:1028F00081CF138781838327C4FEBA9783C70700DC
:102900003E85EF30C03019A8138781838327C4FE2A
:10291000BA9783C707003E85EF3040310100F2408F
:10292000624405618280011122CE00102326A4FE9C
:102930002324B4FEC9670327C4FE0A07938747DD33
:10294000BA979C4383D70700C207C18393F7070256
:102950008DC7C9670327C4FE0A07938747DDBA9767
:102960009C4383D74700C207C18313F7F70F832720
:1029700084FE2380E700854711A081473E8572448D
:1029800005618280797106D622D40018232EA4FC1A
:10299000232CB4FC232AC4FC2328D4FC032744FDA5
:1029A000832704FD3D8F8327C4FDB207F98F93B7BA
:1029B000170093F7F70F3E871306A00AC9679385A0
:1029C00047923A85EF20C061832744FD13D78700E3
:1029D000832704FDA183B307F74093B7170093F74C
:1029E000F70F3E871306B00AC967938547923A8569
:1029F000EF20005F832744FD93F7F70FE146014680
:102A000085453E85EFE0AF8D832704FD93F7F70FF3
:102A100093068004014681453E85EFE04F8C854555
:102A20000545EF40307E032744FDC167FD17F98F50
:102A30000D67130707386385E7200D67130707380D
:102A40006369F7040567130757166381E71605677F
:102A500013075716636FF7001307F022638AE70C1A
:102A6000130760306381E710130760126388E7087B
:102A700055A6096713078736638AE7160D6713079C
:102A800007126385E71809671307A7146380E71423
:102A900051A615671307A738638CE7261567130738
:102AA000A7386362F702116713078738638EE71E42
:102AB0001567130787126383E7221167130747120D
:102AC000638AE71A81AE19671307C7386386E72A56
:102AD00019671307C7386368F7001967130767108A
:102AE0006382E72605AE1D671307E7106380E72CB6
:102AF0001D671307E7386385E72E29AEB707014046
:102B0000D44FB7070140370700FC7D17758FD8CF2A
:102B1000B7070140D843B70701406D9BD8C3B7073B
:102B20000140D843B707014013674700D8C3DDA46D
:102B3000B7070140D44FB7070140370700FC7D17A6
:102B4000758FD8CFB7070140D44FB707014037077B
:102B50000004558FD8CFB7070140D843B7070140CD
:102B60006D9BD8C345ACB7070140D44FB7070140B0
:102B7000370700FC7D17758FD8CFB7070140D44FBA
:102B8000B707014037070004558FD8CFB70701407A
:102B9000D843B70701406D9BD8C3B7070140D8435E
:102BA000B707014013674700D8C3ADA4B70701407A
:102BB000D843B70701405D9BD8C3B7070140D8434E
:102BC000B707014013678700D8C3A9A4B70701401E
:102BD000D843B70701401D9BD8C3B7070140D8436E
:102BE000B707014013678700D8C32DA4B70701407A
:102BF000D843B70701401D9BD8C3B7070140D8434E
:102C0000B707014013678701D8C329A4B70701405C
:102C1000D44FB70701403707FDFF7D17758FD8CF19
:102C2000B7070140D44F832744FDA18313970701C1
:102C3000B70703007D8FB7070140558FD8CFD9AABA
:102C4000B7070140D44FB70701403707FDFF7D1795
:102C5000758FD8CFB7070140D44F832744FDA18398
:102C600013970701B70703007D8FB7070140558F02
:102C7000D8CF4DA2B7070140D44FB707014037075F
:102C8000F4FF7D17758FD8CFB7070140D44F832746
:102C900044FDA18313972701B7070C007D8FB70769
:102CA0000140558FD8CFBDA2B7070140D44FB70719
:102CB00001403707F4FF7D17758FD8CFB707014064
:102CC000D44F832744FDA18313972701B7070C0036
:102CD0007D8FB7070140558FD8CF2DAAB707014088
:102CE000D44FB70701403707D0FF7D17758FD8CF76
:102CF000B7070140D44F832744FDA18313974701B1
:102D0000B70730007D8FB7070140558FD8CF19A284
:102D1000B7070140D44FB70701403707D0FF7D17F1
:102D2000758FD8CFB7070140D44F832744FDA183C7
:102D300013974701B70730007D8FB7070140558FC4
:102D4000D8CFC9A8B7070140D44FB707014037070C
:102D500040FF7D17758FD8CFB7070140D44F832729
:102D600044FDA18313976701B707C0007D8FB707A4
:102D70000140558FD8CF79A8B7070140D44FB70786
:102D80000140370740FF7D17758FD8CFB707014047
:102D9000D44F832744FDA18313976701B707C00071
:102DA0007D8FB7070140558FD8CFADA0B707014041
:102DB000D44FB7070140370700FD7D17758FD8CF77
:102DC000B7070140D44F832744FDA18313978701A0
:102DD000B70700037D8FB7070140558FD8CF1DA8D7
:102DE000B7070140D44FB7070140370700FD7D17F3
:102DF000758FD8CFB7070140D44F832744FDA183F7
:102E000013978701B70700037D8FB7070140558FE0
:102E1000D8CF01008327C4FD91E785451165EF40B8
:102E2000703E69A80327C4FD85476318F7008545F0
:102E300037050200EF40704151A00327C4FD8947C8
:102E40006318F700854537050400EF401040BDA02A
:102E50000327C4FD8D476318F70085453705080033
:102E6000EF40B03EA1A80327C4FD91476318F700C7
:102E7000854537051000EF40503D89A00327C4FD6C
:102E800095476318F700854513050004EF40F03BB4
:102E900035A00327C4FD99476318F700854513053E
:102EA0000008EF40903A19A80327C4FD9D47631717
:102EB000F700854513050010EF403039232004FE4C
:102EC000232204FE232404FE232604FE832784FDFC
:102ED0002320F4FE231204FE231304FE231404FE15
:102EE000231604FEB1472315F4FEC9670327C4FD6A
:102EF0000A07938747DDBA979C433E87930704FEF2
:102F0000BE853A85EF509016C9670327C4FD0A07AE
:102F1000938747DDBA979C4385453E85EF505038EF
:102F20000100B250225445618280411106C622C47C
:102F30000008A1461386818481451385418DEF20C9
:102F400010380100B240224441018280011106CEB6
:102F500022CC001083C71185638A070E09A8930746
:102F600034FE0546BE851385018FEF200057930779
:102F700034FEBE851D45EFF01F9BAA87EDF3034786
:102F800034FEA9476314F70C99472322F4FE130774
:102F900044FE930784FE85463A86BE851385018FDD
:102FA000EF20F003930784FE138737000D46C967AF
:102FB000938587993A85EFB0B04DAA879DEB03A71B
:102FC00081858947630DF706054723ACE1841385A6
:102FD000018FEF20C03AAA872322F4FE930744FE14
:102FE00081463E869385C1981385018FEF20207F0F
:102FF000B9A0930784FE138737000D46C9679385F0
:10300000C7993A85EFB0D048AA8795EB03A74185C9
:1030100089476306F702054723AAE1841385018FD8
:10302000EF20E035AA872322F4FE930744FE814671
:103030003E869385C1901385018FEF20407A1385DA
:10304000018FEF20C02305472388E1840100F2406F
:10305000624405618280397106DE22DC800023260D
:10306000A4FC8547A307F4FE231604FE232404FED4
:10307000232E04FC83D741863E87930700236316E3
:10308000F700A5472324F4FE29A0A1472324F4FE3A
:10309000010049A0930750FA2300F4FE832784FE21
:1030A0008A070327C4FCBA978397070093F7F70FA3
:1030B000A300F4FE832784FE8A070327C4FCBA9783
:1030C000839727002313F4FE835764FEA183C2076E
:1030D000C18393F7F70F2301F4FE835764FE93F740
:1030E000F70FA301F4FE930704FE1146BE851145B8
:1030F000EFF0EFEE03A781818967938707F4B35759
:10310000F70289453E85EFD02F9A832784FEFD176D
:103110002324F4FE032784FE9307E00FE3FCE7F685
:103120001385418DEF20A0252A87894763FFE70299
:103130008D47232EF4FC1307C4FD930704FE81463C
:103140003A86BE851385418DEF206069034714FEE2
:103150009307F00F6308F700034724FE9307F00F6F
:103160006315F700A30704FE35A003A781818967D3
:10317000938707F4B357F70285453E85EFD0CF928A
:103180008357C4FE138717002316E4FE1307F007C6
:10319000E378F7F88347F4FE3E85F25062542161EC
:1031A0008280397106DE22DC80002326A4FCA3077E
:1031B00004FE231604FE232404FE232E04FC83D7DE
:1031C00041863E87930700236316F700A547232413
:1031D000F4FE29A0A1472324F4FE0100832784FEE6
:1031E000FD172324F4FE29AA03D741869307F02272
:1031F00063EDE700832784FE8A070327C4FCBA97A0
:1032000003970700A5476307F70E930750FA2300BB
:10321000F4FEC557A300F4FE832784FE8A07032724
:10322000C4FCBA97839707002313F4FE835764FE08
:10323000A183C207C18393F7F70F2301F4FE8357DD
:1032400064FE93F7F70FA301F4FE930704FE114603
:10325000BE851145EFF0AFD8231604FE1385418DCE
:10326000EF20E0112A87894763F7E7048D47232E73
:10327000F4FC1307C4FD930704FE81463A86BE851D
:103280001385418DEF20A055834714FEA207939626
:103290000701C186834724FE1397070141878327CF
:1032A00084FE8A070326C4FCB297558F42074187E4
:1032B0002391E70035A003A781818967938707F4ED
:1032C000B357F70285453E85EFC01FFE8357C4FE06
:1032D000138717002316E4FE1307F007E370F7F8CF
:1032E0000357C4FE9307000863F7E7008547A30769
:1032F000F4FE19A80100832784FEFD172324F4FEA1
:10330000832784FEE39207EE8347F4FE3E85F25066
:10331000625421618280011106CE22CC0010A307E5
:1033200004FE9307F4FEBE851145EFF0CFDF03479F
:10333000F4FE9307500A6316F7001385418DEF10D2
:1033400010748347F4FEBE851385418DEF2060071E
:103350000100F240624405618280411122C60008EA
:103360000547238EE184010032444101828001112E
:1033700006CE22CC0010231704FE231604FE2320C1
:1033800004FE930750FA2302F4FEC557A302F4FE8D
:103390009307200F2315F4FE8357A4FEA183C207D1
:1033A000C18393F7F70F2303F4FE8357A4FE93F72B
:1033B000F70FA303F4FE930744FE1146BE851145A3
:1033C000EFF0EFC11385418DEF10707B2A8789479D
:1033D00063F0E7048D472320F4FE130704FE9307F0
:1033E00044FE81463A86BE851385418DEF20203FFD
:1033F000834754FEA207139707014187834764FE62
:10340000C207C187D98FC207C1872316F4FE35A032
:1034100003A781818967938707F4B357F70285452E
:103420003E85EFC07FE88357E4FE1387170023171C
:10343000E4FE1307F007E377F7F88357C4FE3E85F1
:10344000F240624405618280397106DE22DC800030
:10345000A30704FE054723A0E1869307C4FD1307D5
:10346000C004930620061306401F81453E85EFE009
:103470002FF303A781818967938707F4B357F70276
:103480009305800C3E85EFC03FE21307C4FDB707EC
:103490000020938507023A85EF703031AA8763894F
:1034A000070C23A0018691679386270691671386F0
:1034B000C7048967938507581145EFF0AFCC854560
:1034C0001145EFF00FBE03A781818967938707F449
:1034D000B357F7029305800C3E85EFC0FFDCB7378A
:1034E00000001386A735B7370000938567310D4577
:1034F000EF10201BEFF07FA39D3DAA873E8723920C
:10350000E186B707002013850702EFF0DFB4AA8732
:103510008DC79306701BC967138687A8C9679385F3
:1035200047B00145EF105032014681450145EF108B
:1035300040178547A307F4FE25A8B7070020138589
:1035400087048531AA878DC79306301CC967138607
:1035500087A8C967938507B20145EF10F02E014691
:1035600081450145EF10E0138547A307F4FE0100F4
:10357000B73700001386A735B7370000938567314A
:103580000D45EF10001291473EC495473EC2994742
:103590003EC093089002130880029307600213074D
:1035A000B0049306900413068004A9452545EFC096
:1035B000BFD685469967138607828145B7070020E5
:1035C0001385C749EFC0DFE58347F4FE3E85F2501F
:1035D000625421618280011106CE22CC0010AA879C
:1035E000A307F4FEB70700209387C7009C47130783
:1035F000000298CBB70700209387C7009C471307AA
:103600000002D8CBB70700209387C700DC430947E7
:10361000D8CB8347F4FEBE85B76700201385C7CBA0
:10362000EFE03FD2B70700209387C7009C471307FE
:10363000000298CBB70700209387C700DC430947F7
:1036400098CBB70700209387C7009C471307000259
:10365000D8CB0100F240624405618280011106CEA0
:1036600022CC0010AA8736872317F4FEAE872316D4
:10367000F4FEB2872315F4FEBA872314F4FE83C741
:103680008180C207C1830357E4FEB337F70093F785
:10369000F70F3E871306E008C9679385C7B33A85DD
:1036A000EF10101483C79180C207C1830357C4FE73
:1036B000B337F70093F7F70F3E871306F008C96793
:1036C0009385C7B33A85EF10B01183C78180C207D5
:1036D000C1830357A4FEB337F70093F7F70F3E8774
:1036E00013060009C9679385C7B33A85EF10500FD9
:1036F00083C79180C207C183035784FEB337F700A5
:1037000093F7F70F3E8713061009C9679385C7B370
:103710003A85EF10F00C83A7818691C703A78186B5
:103720008547631DF70A1305A00275358145B76704
:1037300000201385C7CBEFE0DFC08357E4FE93F78B
:10374000F70F890793F7F70FBE85B767002013853A
:10375000C7CBEFE01FBF8145B76700201385C7CBFC
:10376000EFE03FBE8357A4FE93F7F70F890793F767
:10377000F70FBE85B76700201385C7CBEFE07FBC8E
:103780001305B002893D8145B76700201385C7CB7B
:10379000EFE03FBB8357C4FE93F7F70F850793F71E
:1037A000F70FBE85B76700201385C7CBEFE07FB961
:1037B0008145B76700201385C7CBEFE09FB88357DB
:1037C00084FE93F7F70F850793F7F70FBE85B7676A
:1037D00000201385C7CBEFE0DFB65DA81305A0027C
:1037E000DD3B8145B76700201385C7CBEFE07FB590
:1037F0008357E4FE93F7F70F850793F7F70FBE851E
:10380000B76700201385C7CBEFE0BFB38145B7672B
:1038100000201385C7CBEFE0DFB28357A4FE93F7F8
:10382000F70F850793F7F70FBE85B767002013855D
:10383000C7CBEFE01FB11305B002713B8145B767FD
:1038400000201385C7CBEFE0DFAF8357C4FE93F7AB
:10385000F70F890793F7F70FBE85B7670020138529
:10386000C7CBEFE01FAE8145B76700201385C7CBFC
:10387000EFE03FAD835784FE93F7F70F890793F787
:10388000F70FBE85B76700201385C7CBEFE07FAB8E
:103890001305C00289330100F24062440561828051
:1038A000797106D622D400189307C4FD3E85EF1027
:1038B000807E8547231EF4FC83C78180C207C183B5
:1038C000231FF4FC83C79180C207C1832310F4FE39
:1038D000B707002083A747290547638AE70099EFC8
:1038E00099472301F4FEA147A301F4FE09A8A147CB
:1038F0002301F4FEC147A301F4FE11A00100B74764
:103900000000938787D12324F4FEB74700009387F4
:10391000A7922326F4FE9307C4FD3E85EF10407D59
:103920000100B250225445618280011106CE22CCA2
:10393000001083C781803E8783C79180B307F70259
:103940002326F4FEB70700209387C7009C47130780
:103950000002D8CB83C78180C207C183FD171397AC
:103960000701418383C79180C207C183FD17C20746
:10397000C183BE863A8681450145EFF03FCE0DA05A
:10398000B707002083D72729BE85B7670020138596
:10399000C7CBEFE09F9F8327C4FEFD172326F4FECD
:1039A0008327C4FEF1FFB70700209387C7009C4719
:1039B0001307000298CB0100F24062440561828047
:1039C000011122CE00102326A4FE0327C4FE23A447
:1039D000E1860327C4FE854763EBE700130700F881
:1039E0002384E180130700FAA384E18009A8130768
:1039F00000FA2384E180130700F8A384E18001002A
:103A0000724405618280011122CE0010AA872E87A0
:103A10002317F4FEBA872316F4FEB70700200357D6
:103A2000E4FE2398E728B70700200357C4FE239934
:103A3000E7280100724405618280797106D622D49C
:103A40000018AA87AE863287231FF4FCB687231E90
:103A5000F4FCBA87A30DF4FC83C78180C207C1833D
:103A60000357E4FDB337F70093F7F70F3E871306CC
:103A7000C018C9679385C7B33A85EF10605683C7EE
:103A80009180C207C1830357C4FDB337F70093F792
:103A9000F70F3E871306D018C9679385C7B33A85D9
:103AA000EF100054B70700209387C7009C47130707
:103AB0000002D8CBB707002083A7472905476384B6
:103AC000E70E639D0722A30704FEC1A88347F4FE07
:103AD0001397070141838357E4FDBA9713950701B4
:103AE00041818347F4FE1397070141838357E4FD27
:103AF000BA971397070141838357C4FDA107939693
:103B00000701C1828357C4FD3A86BE85EFF01FB519
:103B10008307B4FD138707FE8346F4FE4966BA8720
:103B20008607BA9786071307463EBA97B69783C7A4
:103B30000700A306F4FE230704FEB1A08347D4FECA
:103B4000858B89CFB707002083D70729BE85B76744
:103B500000201385C7CBEFE05F8321A8B7070020C3
:103B600083D72729BE85B76700201385C7CBEFE031
:103B7000DF818347D4FE8583A306F4FE8347E4FEFA
:103B800085072307F4FE0347E4FE9D47E3F8E7FAC1
:103B90008347F4FE8507A307F4FE0347F4FE954729
:103BA000E3F6E7F2A9AAA30704FE99A28347F4FE6D
:103BB0001397070141838357E4FDBA9713950701D3
:103BC00041818347F4FE1397070141838357E4FD46
:103BD000BA971397070141838357C4FDBD07939696
:103BE0000701C1828357C4FD3A86BE85EFF01FA747
:103BF0008307B4FD938607FE8347F4FE4967920668
:103C0000130747DF3697BA9783C707002306F4FEEA
:103C10008307B4FD938607FE8347F4FEA107496737
:103C20009206130747DF3697BA9783C70700A305A5
:103C3000F4FE230704FEB1A08347C4FE858B89CF21
:103C4000B707002083D70729BE85B76700201385F3
:103C5000C7CBEFE08FF321A8B707002083D7272930
:103C6000BE85B76700201385C7CBEFE00FF283470F
:103C7000C4FE85832306F4FE8347E4FE85072307FD
:103C8000F4FE0347E4FE9D47E3F8E7FA230704FE4A
:103C9000B1A08347B4FE858B89CFB707002083D7B7
:103CA0000729BE85B76700201385C7CBEFE0EFED8E
:103CB00021A8B707002083D72729BE85B767002032
:103CC0001385C7CBEFE06FEC8347B4FE8583A30574
:103CD000F4FE8347E4FE85072307F4FE0347E4FE72
:103CE0009D47E3F8E7FA8347F4FE8507A307F4FE50
:103CF0000347F4FE9D47E3FBE7EA11A00100B70785
:103D000000209387C7009C471307000298CB01004F
:103D1000B250225445618280797106D622D40018AF
:103D2000AA872E87232CC4FC231FF4FCBA87231EEA
:103D3000F4FC83C78180C207C1830357E4FDB33716
:103D4000F70093F7F70F3E871306D01DC9679385D9
:103D5000C7B33A85EF10C02883C79180C207C183DB
:103D60000357C4FDB337F70093F7F70F3E871306E9
:103D7000E01DC9679385C7B33A85EF106026231706
:103D800004FE4DA0B707002083A747290547638A93
:103D9000E70489C709476386E70869A00357E4FE7B
:103DA000BA878607BA978607139707014183835717
:103DB000E4FDBA9793960701C1828357E4FE032777
:103DC00084FDBA97038707008357C4FD3A86BE85F2
:103DD0003685EFF09FC68357E4FE85072317F4FE70
:103DE00091A08357E4FE8E07139707014183835701
:103DF000E4FDBA9793960701C1828357E4FE032737
:103E000084FDBA97038707008357C4FD3A86BE85B1
:103E10003685EFF09FC28357E4FE85072317F4FE33
:103E200011A001008357E4FE032784FDBA9783871E
:103E30000700A9FB0100B2502254456182805D71E8
:103E400086C6A2C480082A8E2E832324C4FC36850D
:103E5000BA853E86C2864687F2872317F4FC9A8786
:103E60002316F4FCAA872313F4FCAE872312F4FC78
:103E7000B2872311F4FCB6872310F4FCBA87A30F92
:103E8000F4FA83C78180C207C1830357E4FCB337C8
:103E9000F70093F7F70F3E871306202AC96793852B
:103EA000C7B33A85EF10C01383C79180C207C1839F
:103EB0000357C4FCB337F70093F7F70F3E87130699
:103EC000302AC9679385C7B33A85EF1060118327FD
:103ED00084FCB337F00093F7F70F3E871306402AB0
:103EE000C9679385C7B33A85EF10800F232604FE78
:103EF000232404FE231304FE231204FE232004FEC5
:103F0000232E04FCB70700209387C7009C471307A4
:103F10000002D8CB0357E4FC835724FCBA97C207AE
:103F2000C183FD171396070141820357C4FC8357D1
:103F300004FCBA97C207C183FD1793960701C1829B
:103F40000357C4FC8357E4FCBA853E85EFF00FF1BC
:103F5000232404FE21AA035744FC832784FE33074D
:103F6000F702835704FCB357F702232EF4FC2326F1
:103F700004FED5A0035764FC8327C4FE3307F70271
:103F8000835724FCB357F7022320F4FE035764FC45
:103F90008327C4FD3307F702832704FEBA9703275C
:103FA00084FCBA9783C707002312F4FE8347F4FB0F
:103FB000ADE7835744FE8D83C207C183AE07231349
:103FC000F4FE835744FE8983C207C1839607C20764
:103FD000C18793F7077E139707014187831764FE14
:103FE000D98FC207C1872313F4FE835744FE8D8304
:103FF000C207C183FD8B139707014183835764FE7A
:10400000D98F2313F4FE835764FEBE85B767002063
:104010001385C7CBEFE06FB715A88347F4FBC20742
:10402000C183035744FE637AF7008145B7670020D8
:104030001385C7CBEFE06FB511A8C1679385F7FF74
:10404000B76700201385C7CBEFE02FB48327C4FEEA
:1040500085072326F4FE835724FC0327C4FEE36B65
:10406000F7F0832784FE85072324F4FE835704FC9E
:10407000032784FEE361F7EEB70700209387C700AC
:104080009C471307000298CB0100B64026446161AB
:104090008280411106C622C40008C1671388F7FF59
:1040A000C167FD17130790089306B00805468145C0
:1040B000376500201305C5CBEFE08FB1C14601463F
:1040C000854513051002EFC09FA1C14601468545F5
:1040D00013057008EFC0BFA0C1460546854513050E
:1040E0005004EFC0DF9FC146054685451305000615
:1040F000EFC0FF9E83A781863E85EFF07F8CB707D8
:10410000002003D70729B707002083D72729BE85BA
:104110003A85EFF05F8FEFF0AFF8B7070020938795
:10412000C7009C4B13070008D8CB03A78181896780
:10413000938707F4B357F702A9453E85EFC0CF96A2
:10414000B70700209387C7009C4B1307000898CB44
:1041500003A781818967938707F4B357F702930513
:1041600080073E85EFC04F94B70700209387C700B4
:104170009C4713070002D8CB4545EFF0CFC503A7F6
:1041800081818967938707F4B357F7029305800706
:104190003E85EFC06F911305100BEFF0CFC385453F
:1041A000B76700201385C7CBEFE0AF999305C00236
:1041B000B76700201385C7CBEFE0AF989305D00217
:1041C000B76700201385C7CBEFE0AF971305200B2F
:1041D000EFF06FC08545B76700201385C7CBEFE0D0
:1041E0004F969305C002B76700201385C7CBEFE059
:1041F0004F959305D002B76700201385C7CBEFE03A
:104200004F941305300BEFF00FBD8545B7670020C5
:104210001385C7CBEFE0EF929305C002B76700208C
:104220001385C7CBEFE0EF919305D002B76700206D
:104230001385C7CBEFE0EF908545B7670020138566
:10424000C7CBEFE00F909305C002B767002013853E
:10425000C7CBEFE00F8F9305D002B767002013851F
:10426000C7CBEFE00F8E1305400BEFF0CFB69D45A7
:10427000B76700201385C7CBEFE0AF8C1305000CA8
:10428000EFF06FB59305200AB76700201385C7CB01
:10429000EFE02F8B8945B76700201385C7CBEFE090
:1042A0004F8A93054008B76700201385C7CBEFE01E
:1042B0004F891305100CEFF00FB29305500CB76740
:1042C00000201385C7CBEFE0CF871305200CEFF05C
:1042D0008FB0A945B76700201385C7CBEFE06F8685
:1042E0008145B76700201385C7CBEFE08F851305A5
:1042F000300CEFF04FAE9305A008B7670020138590
:10430000C7CBEFE00F849305A002B76700201385A9
:10431000C7CBEFE00F831305400CEFF0CFAB930555
:10432000A008B76700201385C7CBEFE08F81930506
:10433000E00EB76700201385C7CBEFE08F80130531
:10434000500CEFF04FA9B945B76700201385C7CBD4
:10435000EFD03FFF13056003EFF0EFA783A781863F
:1043600005476383E70281CB09476387E7020D476F
:10437000638DE702A1A09305000CB76700201385A9
:10438000C7CBEFD01FFC1DA88145B7670020138560
:10439000C7CBEFD01FFB1DA09305000AB767002015
:1043A0001385C7CBEFD0FFF911A893050006B767B7
:1043B00000201385C7CBEFD0DFF801001305000EF6
:1043C000EFF06FA1BD45B76700201385C7CBEFD0D5
:1043D0005FF7E945B76700201385C7CBEFD07FF6BD
:1043E000BD45B76700201385C7CBEFD09FF5E145EA
:1043F000B76700201385C7CBEFD0BFF49305F00259
:10440000B76700201385C7CBEFD0BFF393058002B9
:10441000B76700201385C7CBEFD0BFF2930500022A
:10442000B76700201385C7CBEFD0BFF193052002FB
:10443000B76700201385C7CBEFD0BFF0FD45B76746
:1044400000201385C7CBEFD0DFEFED45B767002025
:104450001385C7CBEFD0FFEE93053002B76700207E
:104460001385C7CBEFD0FFED93057003B76700202E
:104470001385C7CBEFD0FFEC8145B76700201385CC
:10448000C7CBEFD01FEC9D45B76700201385C7CB86
:10449000EFD03FEB8945B76700201385C7CBEFD03E
:1044A0005FEAC145B76700201385C7CBEFD07FE92E
:1044B0001305100EEFF02F92BD45B767002013854E
:1044C000C7CBEFD01FE8ED45B76700201385C7CBFA
:1044D000EFD03FE7BD45B76700201385C7CBEFD0CE
:1044E0005FE6DD45B76700201385C7CBEFD07FE5DA
:1044F00093053003B76700201385C7CBEFD07FE467
:104500009305C002B76700201385C7CBEFD07FE3C8
:1045100093059002B76700201385C7CBEFD07FE2E9
:104520009305E002B76700201385C7CBEFD07FE18A
:1045300093050003B76700201385C7CBEFD07FE05A
:1045400093050003B76700201385C7CBEFD07FDF4B
:1045500093059003B76700201385C7CBEFD07FDEAC
:104560009305F003B76700201385C7CBEFD07FDD3D
:104570008145B76700201385C7CBEFD09FDC9D45F1
:10458000B76700201385C7CBEFD0BFDB8D45B7677A
:1045900000201385C7CBEFD0DFDAC145B767002015
:1045A0001385C7CBEFD0FFD91305A002EFF0AF8280
:1045B0008145B76700201385C7CBEFD09FD88945C9
:1045C000B76700201385C7CBEFD0BFD78145B7674A
:1045D00000201385C7CBEFD0DFD693052008B7673F
:1045E00000201385C7CBEFD0DFD51305B002EFE075
:1045F0009FFE8145B76700201385C7CBEFD07FD4DE
:104600008D45B76700201385C7CBEFD09FD3814579
:10461000B76700201385C7CBEFD0BFD29305300812
:10462000B76700201385C7CBEFD0BFD11305000FAC
:10463000EFE07FFA8545B76700201385C7CBEFD041
:104640005FD01305600FEFE01FF98145B7670020C9
:104650001385C7CBEFD0FFCE1305A003EFE0BFF764
:104660009545B76700201385C7CBEFD09FCD1305C5
:104670009002EFE05FF6B70700209387C7009C47E2
:104680001307000298CBEFF04FAA0100B24022447A
:1046900041018280411122C60008010032444101DB
:1046A0008280011122CE00102326A4FE2324B4FE12
:1046B0002322C4FE0327C4FE23A6E186832744FEEB
:1046C00081C7832744FE29A0B74700009387476925
:1046D00023A8F180832784FE81C7832784FE29A035
:1046E000B74700009387476923A6F1800100724411
:1046F00005618280411122C60008B7170240984325
:10470000B71702401367170098C3B7170240D44386
:10471000B71702403707FFF8758FD8C3B7170240A5
:104720009443B71702403707F7FE7D17758F98C37C
:10473000B71702409443B71702403707FCFF7D17B5
:10474000758F98C3B7170240D443B7170240370795
:1047500081FF7D17758FD8C3B717024037079F00B9
:1047600098C70100324441018280797122D6001835
:10477000232EA4FC232604FE232404FEB7170240A4
:104780009443B71702404167558F98C3B71702404B
:104790009843B7070200F98F2324F4FE8327C4FE51
:1047A00085072326F4FE832784FE91E70327C4FEB2
:1047B0008567E31DF7FCB71702409843B70702006F
:1047C000F98F89C785472324F4FE19A0232404FE0A
:1047D000032784FE85476312F71637170240B71781
:1047E00002405843D8C337170240B7170240584316
:1047F000D8C337170240B71702405843D8C3B7177A
:104800000240D443B71702403707C1FF7D17758FA9
:10481000D8C30327C4FDB747950893870740631B98
:10482000F700B7170240D443B71702404167558FCE
:10483000D8C355A80327C4FDB7172707938707E0F8
:10484000631CF700B7170240D443B717024037077D
:104850003900558FD8C341A80327C4FDB7E7B80571
:1048600093870780631CF700B7170240D443B7173C
:10487000024037072900558FD8C3B5A00327C4FDD0
:10488000B7A74A0493870720631CF700B7170240B5
:10489000D443B717024037071D00558FD8C3A1A0D6
:1048A0000327C4FDB777DC02938707C0631CF700BA
:1048B000B7170240D443B717024037071100558F8E
:1048C000D8C315A00327C4FDB7376E0193870760CF
:1048D000631BF700B7170240D443B71702403707EE
:1048E0000500558FD8C3B71702409443B71702404D
:1048F00037070001558F98C30100B717024098434E
:10490000B7070002F98FF5DBB7170240D843B71796
:104910000240719BD8C3B7170240D843B717024073
:1049200013672700D8C30100B7170240DC4313F711
:10493000C700A147E31AF7FE11A001A03254456158
:104940008280011106CE22CC00102326A4FE03276C
:10495000C4FE23ACE180EFF0FFD90325C4FEEFF0E5
:10496000DFE0EF1000370100F24062440561828011
:10497000411122C600080100010032444101828039
:10498000011106CE22CC0010232604FE232404FEAF
:10499000232604FE25A0232404FE39A0D13F83272B
:1049A00084FE85072324F4FE032784FEC167E367A2
:1049B000F7FE8327C4FE85072326F4FE0327C4FEE3
:1049C0009307F00FE3F9E7FC0100F2406244056150
:1049D0008280411122C600080100324441018280D8
:1049E000011106CE22CC00102326A4FE8325C4FE8E
:1049F0000945EFD01FE50100F24062440561828065
:104A0000130101D92326112623248126232291264E
:104A1000801C232EA4D8232CB4D8232AC4D823281E
:104A2000D4D8231504FE231404FE231304FE2312FA
:104A300004FE231104FE032584D9EFA04024AA8795
:104A4000C207C1872313F4FEB767002083D747CD81
:104A500099C7B7670020938747CD9C4B829783C740
:104A6000018793F7F70F6385074EB767002083D759
:104A700047CD63890746B7670020938747CDD44762
:104A8000835724FE13970701418793170701C183BA
:104A90008507C207C183C207C1872311F4FE93179C
:104AA0000701C1830326C4D9BE85014582968327A9
:104AB00084D92326F4FE032584D9EFA0401CAA87BD
:104AC000C207C1872313F4FEB7670020938747CD41
:104AD00083D727003E87B7670020938747CD83C7DA
:104AE0006700B347F702C207C1872312F4FE010033
:104AF0008327C4FE138717002326E4FE838707005D
:104B0000E5FB231404FEA1A88327C4FEFD1723267A
:104B1000F4FE8327C4FE038707009307F002630AAD
:104B2000F7008327C4FE038707009307C005631BB4
:104B3000F700835784FEC207C1838507C207C1837C
:104B40002314F4FE835764FEC207C187C207C183E2
:104B5000FD17C207C183C207C1872313F4FE835721
:104B600084FE139707014183854763E8E700835775
:104B700064FEC207C187E3D907F8835764FEC20702
:104B8000C18763C207028327C4FE85072326F4FE7C
:104B9000130704EE0326C4FEC9679385C7BB3A8595
:104BA000EFA080091DA8835784FEC207C18381EF4F
:104BB000130704EE0326C4FEC967938587BC3A85B4
:104BC000EFA0800719A8130704EE0326C4FEC967E7
:104BD0009385C7BB3A85EFA02006231504FE05A2E6
:104BE000231404FE59A0930704EE3E85EFA020098C
:104BF0002A87835784FEC207C183BE868357A4FEDB
:104C0000C207C1833E86835744FEC207C187B307EC
:104C1000F602B6976367F706835784FEC207C1831F
:104C20003E878357A4FEC207C183BE86835744FED6
:104C3000C207C187B387F602BA97035784FE4207BB
:104C40004183BA86130704FFBA97038707EF9307D8
:104C500004FFB6972388E7EA835784FEC207C1831F
:104C60008507C207C1832314F4FE835784FEC2075D
:104C7000C1833E87835744FEC207C187E345F7F6E9
:104C800011A00100835784FEC207C183130704FFEC
:104C9000BA97238807EAB7670020938747CD03A810
:104CA000C700B7670020938747CD83C77700139766
:104CB00007014183835724FE93960701C18693978A
:104CC0000601C1838507C207C183C207C1872311BB
:104CD000F4FE93970601C183B307F702C207C183AD
:104CE000130704EA3A86BE85014502988357A4FE5D
:104CF000C207C1838507C207C1832315F4FE83570A
:104D0000A4FEC207C183BE84930704EE3E85EF90E4
:104D100010772A87835744FEC207C187B357F7022B
:104D20008507E3EFF4EA130704EE032644D9C967C5
:104D3000938587BD3A85EF903070B76700209387E1
:104D400047CD03A8C700B7670020938747CD83C727
:104D50007700139707014183835724FE9396070139
:104D6000C18693970601C1838507C207C183C20725
:104D7000C1872311F4FE93970601C183B307F7029D
:104D8000C207C183130704EE3A86BE850145029827
:104D9000832704D9638E071A231504FE05A2231462
:104DA00004FE59A0032504D9EF90706D2A8783571C
:104DB00084FEC207C183BE868357A4FEC207C18397
:104DC0003E86835744FEC207C187B307F602B697F3
:104DD0006368F706835784FEC207C1833E87835703
:104DE000A4FEC207C183BE86835744FEC207C187A3
:104DF000B387F602BA973E87832704D9BA97035739
:104E000084FE42074183BA8603870700930704FFA5
:104E1000B6972388E7EA835784FEC207C1838507D4
:104E2000C207C1832314F4FE835784FEC207C183E3
:104E30003E87835744FEC207C187E345F7F611A0BA
:104E40000100835784FEC207C183130704FFBA978A
:104E5000238807EAB7670020938747CD03A8C700D8
:104E6000B7670020938747CD83C777001397070163
:104E70004183835724FE93960701C18693970601C9
:104E8000C1838507C207C183C207C1872311F4FE0E
:104E900093970601C183B307F702C207C1831307C3
:104EA00004EA3A86BE85014502988357A4FEC207EC
:104EB000C1838507C207C1832315F4FE8357A4FE6F
:104EC000C207C183BE84032504D9EF90505B2A87B3
:104ED000835744FEC207C187B357F7028507E3E053
:104EE000F4ECBDA0930704DA1306001081453E855B
:104EF000EFB00FB1B7670020938747CD9C470325DC
:104F0000C4D98297832704D999CF130504DA0327DC
:104F100004D9832644D9032684D9C967938547BE1B
:104F2000EF90905129A8130704DA832644D9032669
:104F300084D9C967938507C03A85EF90F04FB7676A
:104F40000020938747CD9847930704DA3E85029760
:104F500001008320C12603248126832441261301D6
:104F600001278280797106D622D40018232EA4FC52
:104F7000232CB4FC232AC4FC232604FEA9A0010090
:104F8000C967938747DD9C47930500043E85EF3052
:104F90005046AA87F5D7C967938747DD9C47BE86E9
:104FA000832784FD13871700232CE4FC83870700E5
:104FB000C207C183BE853685EF30D0408327C4FE4B
:104FC00085072326F4FE0327C4FE832744FDE34818
:104FD000F7FA832744FD3E85B25022544561828012
:104FE000011106CE22CC0010AA872324B4FE23226E
:104FF000C4FEA307F4FE8347F4FEB1E383C7C18177
:1050000093F7F70F8DCF83C7118791C301A083C793
:105010001187850713F7F70FA388E186EF00B048E3
:10502000EFF03F9B8146032644FE832584FEC9673B
:10503000138587C1EFF0DF9CEFF09F94E5B7010087
:10504000F240624405618280011106CE22CC00103C
:10505000AA872324B4FE2322C4FE2320D4FEA30760
:10506000F4FE8347F4FE95E383C7018793F7F70FB8
:1050700091CF832684FE032604FE832544FEC96760
:10508000138587C2EFF0DF9711A001000100F24005
:10509000624405618280011122CE00102326A4FE05
:1050A0008327C4FE239007008327C4FE7D572391E6
:1050B000E7008327C4FE7D572392E7008327C4FEC1
:1050C0007D572383E7008327C4FE7D57A383E70032
:1050D0008327C4FE23A407008327C4FE23A607005A
:1050E0008327C4FE23A80700010072440561828063
:1050F000011122CE00102326A4FE8327C4FE03D76D
:105100000700B7670020239AE7CC8327C4FE03D7A4
:105110002700B7670020938747CD2391E7008327B7
:10512000C4FE03D74700B7670020938747CD23927B
:10513000E7008327C4FE03C76700B7670020938793
:1051400047CD2383E7008327C4FE03C77700B767F3
:105150000020938747CDA383E7008327C4FE9847A9
:10516000B7670020938747CD98C78327C4FED847E9
:10517000B7670020938747CDD8C78327C4FE984BD5
:10518000B7670020938747CD98CB05472388E186F2
:105190000100724405618280797106D622D400181C
:1051A0009307C4FD3E85EFF01FEFB75700009387CC
:1051B000079E2322F4FE9307C4FD3E85EFF05FF3C4
:1051C00089679386B70289671386A702F16793857B
:1051D00007200945EFD00FFB0100B2502254456172
:1051E0008280011122CE00102326A4FE2324B4FEC7
:1051F0008327C4FED847832784FE3E978327C4FEB7
:10520000D8C719A88327C4FED8478327C4FE9C4F5C
:105210001D8F8327C4FED8C78327C4FE984F8327DA
:10522000C4FEDC47E3F0E7FE0100724405618280C2
:10523000011122CE00102326A4FE2324B4FE8327CE
:10524000C4FE984B832784FE3E978327C4FE98CBE9
:1052500019A88327C4FE984B8327C4FE9C4F1D8F3B
:105260008327C4FE98CB8327C4FE984F8327C4FEB0
:105270009C4BE3F0E7FE0100724405618280797186
:1052800006D622D40018232EA4FC8327C4FDB337EE
:10529000F00093F7F70F3E8713064005C967938523
:1052A00047C33A85EFF0DFD3232604FE8327C4FDEE
:1052B00083C70700858B93F7F70F89C78947232694
:1052C000F4FE7DA08327C4FD83C7070093E7170082
:1052D00013F7F70F8327C4FD2380E7008327C4FD5E
:1052E00023A607008327C4FD23A807008327C4FD46
:1052F000984F8327C4FDD8CB8327C4FDDC430547E3
:105300006383E70289C70947638CE702B9A0832753
:10531000C4FD98478327C4FD9C4F3E8681453A854E
:10532000EFA01FEE1DA88327C4FD98478327C4FD67
:105330009C4F86073E8681453A85EFA07FEC31A8D9
:105340008327C4FD98478327C4FD9C4F8A073E8668
:1053500081453A85EFA0DFEA01008327C4FD83C7BA
:105360000700F99B13F7F70F8327C4FD2380E7009D
:105370008327C4FE3E85B2502254456182800111CC
:1053800006CE22CC00102326A4FE8327C4FEB3370A
:10539000F00093F7F70F3E871306C007C9679385A0
:1053A00047C33A85EFF0DFC38327C4FE984F8327B6
:1053B000C4FEDC4BB307F7403E85F2406244056112
:1053C0008280797106D622D40018232EA4FC232CC7
:1053D000B4FC8327C4FDB337F00093F7F70F3E8783
:1053E0001306A008C967938547C33A85EFF05FBFEE
:1053F000232604FE8327C4FD83C70700898B93F708
:10540000F70F89C785472326F4FEC9A08327C4FD6B
:1054100083C7070093E7270013F7F70F8327C4FD1F
:105420002380E7008327C4FDDC4BD9C38327C4FD59
:10543000DC4305476385E70289C709476380E704C2
:1054400091A88327C4FD98478327C4FDDC47BA97FA
:10545000032784FD1377F70F2380E70025A8832710
:10546000C4FD98478327C4FDDC478607BA97032706
:1054700084FD420741832390E70029A88327C4FDC8
:1054800098478327C4FDDC478A07BA97032784FD22
:1054900098C3010085450325C4FDEFF09FD4832701
:1054A000C4FDDC4B1387F7FF8327C4FDD8CB21A0B5
:1054B00091472326F4FE8327C4FD83C70700F59B8D
:1054C00013F7F70F8327C4FD2380E7008327C4FE6B
:1054D0003E85B250225445618280797106D622D42D
:1054E0000018232EA4FC232CB4FC232AC4FC8327FD
:1054F000C4FDB337F00093F7F70F3E871306C00BD8
:10550000C967938547C33A85EFF09FAD232604FE14
:10551000232404FE832784FD89E78D472326F4FE98
:1055200045AC8327C4FD83C70700898B93F7F70F2A
:1055300089C785472326F4FE61AC8327C4FD83C752
:10554000070093E7270013F7F70F8327C4FD238095
:10555000E7008327C4FDDC4B032744FD63ECE7240D
:105560008327C4FD984F8327C4FDDC47B307F7406A
:105570002324F4FE032744FD832784FE63F2E71807
:105580008327C4FDDC430547638FE70689C70947C6
:105590006389E70E31A48327C4FD98478327C4FDA0
:1055A000DC47BA97032684FE832584FD3E85EF8081
:1055B000D039832584FE0325C4FDEFF09FC28327E5
:1055C000C4FD98478327C4FDDC47B306F7000327D3
:1055D00084FD832784FEB305F700032744FD83275A
:1055E00084FEB307F7403E863685EF8010360327EA
:1055F00044FD832784FEB307F740BE850325C4FD21
:10560000EFF03FBE71AA8327C4FD98478327C4FDEE
:10561000DC4786073E97832784FE86073E868325E0
:1056200084FD3A85EF807032832584FE0325C4FD16
:10563000EFF03FBB8327C4FD98478327C4FDDC47B9
:105640008607B306F700832784FE8607032784FDB9
:10565000B305F700032744FD832784FEB307F74013
:1056600086073E863685EF80502E032744FD83272C
:1056700084FEB307F740BE850325C4FDEFF07FB677
:1056800005A28327C4FD98478327C4FDDC478A070A
:105690003E97832784FE8A073E86832584FD3A85CC
:1056A000EF80B02A832584FE0325C4FDEFF07FB38D
:1056B0008327C4FD98478327C4FDDC478A07B306C8
:1056C000F700832784FE8A07032784FDB305F700CC
:1056D000032744FD832784FEB307F7408A073E86ED
:1056E0003685EF809026032744FD832784FEB30789
:1056F000F740BE850325C4FDEFF0BFAE01004DA00D
:105700008327C4FDDC430547638CE70289C709474B
:105710006380E70671A08327C4FD98478327C4FDF3
:10572000DC47BA97032644FD832584FD3E85EF8040
:10573000D021832544FD0325C4FDEFF09FAA8DA051
:105740008327C4FD98478327C4FDDC4786073E971F
:10575000832744FD86073E86832584FD3A85EF80B6
:10576000D01E832544FD0325C4FDEFF09FA70DA89F
:105770008327C4FD98478327C4FDDC478A073E97EB
:10578000832744FD8A073E86832584FD3A85EF8082
:10579000D01B832544FD0325C4FDEFF09FA4010029
:1057A0008327C4FDD84B832744FD1D8F8327C4FD69
:1057B000D8CB21A091472326F4FE8327C4FD83C7BD
:1057C0000700F59B13F7F70F8327C4FD2380E7003D
:1057D0008327C4FE3E85B250225445618280797190
:1057E00006D622D40018232EA4FC232CB4FC232A92
:1057F000C4FC2328D4FC8327C4FDB337F00093F7FF
:10580000F70F3E8713067016C967938547C33A851D
:10581000EFF00FFD832744FDB337F00093F7F70F48
:105820003E8713068016C967938547C33A85EFF014
:105830002FFB232604FE832784FD89E78D4723263B
:10584000F4FEA1AC8327C4FD83C7070093E747009C
:1058500013F7F70F8327C4FD2380E7000325C4FD5A
:10586000EFF0FFB12324A4FE832744FD9C430327CC
:1058700084FE637AF700832744FD032784FE98C3E0
:1058800095472326F4FE8327C4FD984F8327C4FD44
:105890009C4BB307F7402322F4FE832744FD9C432F
:1058A000032744FE6365F7088327C4FDDC430547EF
:1058B0006388E70289C709476387E704BDA2832796
:1058C000C4FD98478327C4FD9C4B3E97832744FD26
:1058D0009C433E86BA85032584FDEF801007B1A264
:1058E0008327C4FD98478327C4FD9C4B86073E97BA
:1058F000832744FD9C4386073E86BA85032584FDA5
:10590000EF80B0041DA28327C4FD98478327C4FD00
:105910009C4B8A073E97832744FD9C438A073E861B
:10592000BA85032584FDEF8050020100FDA883277E
:10593000C4FDDC430547638AE70489C70947638ED2
:10594000E708E5A08327C4FD98478327C4FD9C4B47
:10595000BA97032644FEBE85032584FDEF80E07ED2
:10596000032784FD832744FEB306F7008327C4FD85
:105970008C47832744FD9843832744FEB307F740B1
:105980003E863685EF80607C4DA08327C4FD984716
:105990008327C4FD9C4B86073E97832744FE8607DA
:1059A0003E86BA85032584FDEF80207A832744FE56
:1059B0008607032784FDB306F7008327C4FD8C47C1
:1059C000832744FD9843832744FEB307F7408607A7
:1059D0003E863685EF80607789A88327C4FD984787
:1059E0008327C4FD9C4B8A073E97832744FE8A0782
:1059F0003E86BA85032584FDEF802075832744FE0B
:105A00008A07032784FDB306F7008327C4FD8C476C
:105A1000832744FD9843832744FEB307F7408A0752
:105A20003E863685EF8060720100832704FDB5E76E
:105A30008327C4FD83C70700858B93F7F70F89C7BA
:105A400089472326F4FE91A88327C4FD83C7070056
:105A500093E7170013F7F70F8327C4FD2380E700B0
:105A6000832744FD9C43BE850325C4FDEFF04FFC16
:105A70008327C4FDD84B832744FD9C433E9783274F
:105A8000C4FDD8CB8327C4FD83C70700F99B13F758
:105A9000F70F8327C4FD2380E7008327C4FD83C756
:105AA0000700918B13F7F70F8327C4FD2380E700CE
:105AB0008327C4FE3E85B2502254456182807971AD
:105AC00006D622D40018232EA4FC232CB4FC232AAF
:105AD000C4FC2328D4FC8327C4FDB337F00093F71C
